{
  "contractName": "CampaignFactory",
  "abi": [
    {
      "constant": true,
      "inputs": [
        {
          "name": "",
          "type": "uint256"
        }
      ],
      "name": "deployedCampaigns",
      "outputs": [
        {
          "name": "",
          "type": "address"
        }
      ],
      "payable": false,
      "stateMutability": "view",
      "type": "function"
    },
    {
      "constant": false,
      "inputs": [
        {
          "name": "minimum",
          "type": "uint256"
        },
        {
          "name": "databaseKey",
          "type": "string"
        },
        {
          "name": "requestDays",
          "type": "uint256"
        },
        {
          "name": "title",
          "type": "string"
        },
        {
          "name": "goal",
          "type": "uint256"
        },
        {
          "name": "category",
          "type": "string"
        }
      ],
      "name": "createCampaign",
      "outputs": [],
      "payable": false,
      "stateMutability": "nonpayable",
      "type": "function"
    },
    {
      "constant": true,
      "inputs": [],
      "name": "getDeployedCampaigns",
      "outputs": [
        {
          "name": "",
          "type": "address[]"
        }
      ],
      "payable": false,
      "stateMutability": "view",
      "type": "function"
    }
  ],
  "bytecode": "0x608060405234801561001057600080fd5b506123b0806100206000396000f300608060405260043610610057576000357c0100000000000000000000000000000000000000000000000000000000900463ffffffff168063339d50a51461005c5780634acb9d4f146100c95780638a1eef9514610135575b600080fd5b34801561006857600080fd5b5061008760048036038101908080359060200190929190505050610248565b604051808273ffffffffffffffffffffffffffffffffffffffff1673ffffffffffffffffffffffffffffffffffffffff16815260200191505060405180910390f35b3480156100d557600080fd5b506100de610286565b6040518080602001828103825283818151815260200191508051906020019060200280838360005b83811015610121578082015181840152602081019050610106565b505050509050019250505060405180910390f35b34801561014157600080fd5b5061024660048036038101908080359060200190929190803590602001908201803590602001908080601f016020809104026020016040519081016040528093929190818152602001838380828437820191505050505050919291929080359060200190929190803590602001908201803590602001908080601f016020809104026020016040519081016040528093929190818152602001838380828437820191505050505050919291929080359060200190929190803590602001908201803590602001908080601f0160208091040260200160405190810160405280939291908181526020018383808284378201915050505050509192919290505050610314565b005b60008181548110151561025757fe5b906000526020600020016000915054906101000a900473ffffffffffffffffffffffffffffffffffffffff1681565b6060600080548060200260200160405190810160405280929190818152602001828054801561030a57602002820191906000526020600020905b8160009054906101000a900473ffffffffffffffffffffffffffffffffffffffff1673ffffffffffffffffffffffffffffffffffffffff16815260200190600101908083116102c0575b5050505050905090565b600086338787878787610325610542565b808881526020018773ffffffffffffffffffffffffffffffffffffffff1673ffffffffffffffffffffffffffffffffffffffff168152602001806020018681526020018060200185815260200180602001848103845289818151815260200191508051906020019080838360005b838110156103ae578082015181840152602081019050610393565b50505050905090810190601f1680156103db5780820380516001836020036101000a031916815260200191505b50848103835287818151815260200191508051906020019080838360005b838110156104145780820151818401526020810190506103f9565b50505050905090810190601f1680156104415780820380516001836020036101000a031916815260200191505b50848103825285818151815260200191508051906020019080838360005b8381101561047a57808201518184015260208101905061045f565b50505050905090810190601f1680156104a75780820380516001836020036101000a031916815260200191505b509a5050505050505050505050604051809103906000f0801580156104d0573d6000803e3d6000fd5b50905060008190806001815401808255809150509060018203906000526020600020016000909192909190916101000a81548173ffffffffffffffffffffffffffffffffffffffff021916908373ffffffffffffffffffffffffffffffffffffffff1602179055505050505050505050565b604051611e328061055383390190560060806040526000600b60006101000a81548160ff0219169083151502179055503480156200002c57600080fd5b5060405162001e3238038062001e3283398101806040528101908080519060200190929190805190602001909291908051820192919060200180519060200190929190805182019291906020018051906020019092919080518201929190505050856000806101000a81548173ffffffffffffffffffffffffffffffffffffffff021916908373ffffffffffffffffffffffffffffffffffffffff160217905550866001819055508460029080519060200190620000ec92919062000142565b5060006005819055508360078190555082600890805190602001906200011492919062000142565b508160098190555080600a90805190602001906200013492919062000142565b5050505050505050620001f1565b828054600181600116156101000203166002900490600052602060002090601f016020900481019282601f106200018557805160ff1916838001178555620001b6565b82800160010185558215620001b6579182015b82811115620001b557825182559160200191906001019062000198565b5b509050620001c59190620001c9565b5090565b620001ee91905b80821115620001ea576000816000905550600101620001d0565b5090565b90565b611c3180620002016000396000f300608060405260043610610112576000357c0100000000000000000000000000000000000000000000000000000000900463ffffffff16806303441006146101175780631385d24c146101445780631a6f7be51461015b5780631f6d494214610188578063283a8b5b146101df57806337c089231461026f5780633fad18341461029a57806340193883146102c55780634051ddac146102f0578063481c6a75146104bc5780634a79d50c14610513578063654f6509146105a35780637569b3d71461067c57806381d12c58146106a75780638dd0855714610817578063937e09b11461088457806393861b67146108af578063c58343ef146108da578063d7bb99ba14610a4a578063ef430aa614610a54575b600080fd5b34801561012357600080fd5b5061014260048036038101908080359060200190929190505050610ae4565b005b34801561015057600080fd5b50610159610c72565b005b34801561016757600080fd5b5061018660048036038101908080359060200190929190505050610cf9565b005b34801561019457600080fd5b506101c9600480360381019080803573ffffffffffffffffffffffffffffffffffffffff169060200190929190505050610ee8565b6040518082815260200191505060405180910390f35b3480156101eb57600080fd5b506101f4610f00565b6040518080602001828103825283818151815260200191508051906020019080838360005b83811015610234578082015181840152602081019050610219565b50505050905090810190601f1680156102615780820380516001836020036101000a031916815260200191505b509250505060405180910390f35b34801561027b57600080fd5b50610284610f9e565b6040518082815260200191505060405180910390f35b3480156102a657600080fd5b506102af610fa4565b6040518082815260200191505060405180910390f35b3480156102d157600080fd5b506102da610fb1565b6040518082815260200191505060405180910390f35b3480156102fc57600080fd5b50610305610fb7565b604051808c81526020018b81526020018a81526020018981526020018881526020018773ffffffffffffffffffffffffffffffffffffffff1673ffffffffffffffffffffffffffffffffffffffff168152602001806020018681526020018060200185815260200180602001848103845289818151815260200191508051906020019080838360005b838110156103a957808201518184015260208101905061038e565b50505050905090810190601f1680156103d65780820380516001836020036101000a031916815260200191505b50848103835287818151815260200191508051906020019080838360005b8381101561040f5780820151818401526020810190506103f4565b50505050905090810190601f16801561043c5780820380516001836020036101000a031916815260200191505b50848103825285818151815260200191508051906020019080838360005b8381101561047557808201518184015260208101905061045a565b50505050905090810190601f1680156104a25780820380516001836020036101000a031916815260200191505b509e50505050505050505050505050505060405180910390f35b3480156104c857600080fd5b506104d1611216565b604051808273ffffffffffffffffffffffffffffffffffffffff1673ffffffffffffffffffffffffffffffffffffffff16815260200191505060405180910390f35b34801561051f57600080fd5b5061052861123b565b6040518080602001828103825283818151815260200191508051906020019080838360005b8381101561056857808201518184015260208101905061054d565b50505050905090810190601f1680156105955780820380516001836020036101000a031916815260200191505b509250505060405180910390f35b3480156105af57600080fd5b5061067a600480360381019080803590602001908201803590602001908080601f016020809104026020016040519081016040528093929190818152602001838380828437820191505050505050919291929080359060200190929190803573ffffffffffffffffffffffffffffffffffffffff169060200190929190803590602001908201803590602001908080601f01602080910402602001604051908101604052809392919081815260200183838082843782019150505050505091929192905050506112d9565b005b34801561068857600080fd5b506106916114ad565b6040518082815260200191505060405180910390f35b3480156106b357600080fd5b506106d2600480360381019080803590602001909291905050506114b3565b60405180806020018981526020018873ffffffffffffffffffffffffffffffffffffffff1673ffffffffffffffffffffffffffffffffffffffff16815260200187151515158152602001861515151581526020018060200185815260200184815260200183810383528b818151815260200191508051906020019080838360005b8381101561076e578082015181840152602081019050610753565b50505050905090810190601f16801561079b5780820380516001836020036101000a031916815260200191505b50838103825286818151815260200191508051906020019080838360005b838110156107d45780820151818401526020810190506107b9565b50505050905090810190601f1680156108015780820380516001836020036101000a031916815260200191505b509a505050505050505050505060405180910390f35b34801561082357600080fd5b5061084260048036038101908080359060200190929190505050611674565b604051808273ffffffffffffffffffffffffffffffffffffffff1673ffffffffffffffffffffffffffffffffffffffff16815260200191505060405180910390f35b34801561089057600080fd5b506108996116b2565b6040518082815260200191505060405180910390f35b3480156108bb57600080fd5b506108c46116b8565b6040518082815260200191505060405180910390f35b3480156108e657600080fd5b50610905600480360381019080803590602001909291905050506116be565b60405180806020018981526020018873ffffffffffffffffffffffffffffffffffffffff1673ffffffffffffffffffffffffffffffffffffffff16815260200187151515158152602001861515151581526020018060200185815260200184815260200183810383528b818151815260200191508051906020019080838360005b838110156109a1578082015181840152602081019050610986565b50505050905090810190601f1680156109ce5780820380516001836020036101000a031916815260200191505b50838103825286818151815260200191508051906020019080838360005b83811015610a075780820151818401526020810190506109ec565b50505050905090810190601f168015610a345780820380516001836020036101000a031916815260200191505b509a505050505050505050505060405180910390f35b610a52611992565b005b348015610a6057600080fd5b50610a69611a62565b6040518080602001828103825283818151815260200191508051906020019080838360005b83811015610aa9578082015181840152602081019050610a8e565b50505050905090810190601f168015610ad65780820380516001836020036101000a031916815260200191505b509250505060405180910390f35b60008060009054906101000a900473ffffffffffffffffffffffffffffffffffffffff1673ffffffffffffffffffffffffffffffffffffffff163373ffffffffffffffffffffffffffffffffffffffff16141515610b4157600080fd5b600c82815481101515610b5057fe5b906000526020600020906007020190508060020160159054906101000a900460ff16151515610b7e57600080fd5b8060020160149054906101000a900460ff16151515610b9c57600080fd5b6007546305265c00024203816006015411151515610bb957600080fd5b80600101543073ffffffffffffffffffffffffffffffffffffffff1631111515610be257600080fd5b8060020160009054906101000a900473ffffffffffffffffffffffffffffffffffffffff1673ffffffffffffffffffffffffffffffffffffffff166108fc82600101549081150290604051600060405180830381858888f19350505050158015610c50573d6000803e3d6000fd5b5060018160020160146101000a81548160ff0219169083151502179055505050565b6000809054906101000a900473ffffffffffffffffffffffffffffffffffffffff1673ffffffffffffffffffffffffffffffffffffffff163373ffffffffffffffffffffffffffffffffffffffff16141515610ccd57600080fd5b600b60009054906101000a900460ff1615600b60006101000a81548160ff021916908315150217905550565b6000600c82815481101515610d0a57fe5b906000526020600020906007020190506000600360003373ffffffffffffffffffffffffffffffffffffffff1673ffffffffffffffffffffffffffffffffffffffff16815260200190815260200160002054111515610d6857600080fd5b6007546305265c00024203816006015410151515610d8557600080fd5b8060050160003373ffffffffffffffffffffffffffffffffffffffff1673ffffffffffffffffffffffffffffffffffffffff16815260200190815260200160002060009054906101000a900460ff16151515610de057600080fd5b60018160050160003373ffffffffffffffffffffffffffffffffffffffff1673ffffffffffffffffffffffffffffffffffffffff16815260200190815260200160002060006101000a81548160ff021916908315150217905550600360003373ffffffffffffffffffffffffffffffffffffffff1673ffffffffffffffffffffffffffffffffffffffff168152602001908152602001600020548160040160008282540192505081905550600f6005548260040154811515610e9e57fe5b04606402101515610ee45760018160020160156101000a81548160ff02191690831515021790555060018160020160146101000a81548160ff0219169083151502179055505b5050565b60036020528060005260406000206000915090505481565b60028054600181600116156101000203166002900480601f016020809104026020016040519081016040528092919081815260200182805460018160011615610100020316600290048015610f965780601f10610f6b57610100808354040283529160200191610f96565b820191906000526020600020905b815481529060010190602001808311610f7957829003601f168201915b505050505081565b60055481565b6000600c80549050905090565b60095481565b600080600080600080606060006060600060606001543073ffffffffffffffffffffffffffffffffffffffff1631600c805490506006546005546000809054906101000a900473ffffffffffffffffffffffffffffffffffffffff1660026007546008600954600a848054600181600116156101000203166002900480601f0160208091040260200160405190810160405280929190818152602001828054600181600116156101000203166002900480156110b45780601f10611089576101008083540402835291602001916110b4565b820191906000526020600020905b81548152906001019060200180831161109757829003601f168201915b50505050509450828054600181600116156101000203166002900480601f0160208091040260200160405190810160405280929190818152602001828054600181600116156101000203166002900480156111505780601f1061112557610100808354040283529160200191611150565b820191906000526020600020905b81548152906001019060200180831161113357829003601f168201915b50505050509250808054600181600116156101000203166002900480601f0160208091040260200160405190810160405280929190818152602001828054600181600116156101000203166002900480156111ec5780601f106111c1576101008083540402835291602001916111ec565b820191906000526020600020905b8154815290600101906020018083116111cf57829003601f168201915b505050505090509a509a509a509a509a509a509a509a509a509a509a50909192939495969798999a565b6000809054906101000a900473ffffffffffffffffffffffffffffffffffffffff1681565b60088054600181600116156101000203166002900480601f0160208091040260200160405190810160405280929190818152602001828054600181600116156101000203166002900480156112d15780601f106112a6576101008083540402835291602001916112d1565b820191906000526020600020905b8154815290600101906020018083116112b457829003601f168201915b505050505081565b6112e1611b00565b6000809054906101000a900473ffffffffffffffffffffffffffffffffffffffff1673ffffffffffffffffffffffffffffffffffffffff163373ffffffffffffffffffffffffffffffffffffffff1614151561133c57600080fd5b610100604051908101604052808681526020018581526020018473ffffffffffffffffffffffffffffffffffffffff16815260200160001515815260200160001515815260200183815260200160008152602001428152509050600c819080600181540180825580915050906001820390600052602060002090600702016000909192909190915060008201518160000190805190602001906113e0929190611b60565b506020820151816001015560408201518160020160006101000a81548173ffffffffffffffffffffffffffffffffffffffff021916908373ffffffffffffffffffffffffffffffffffffffff16021790555060608201518160020160146101000a81548160ff02191690831515021790555060808201518160020160156101000a81548160ff02191690831515021790555060a082015181600301908051906020019061148e929190611b60565b5060c0820151816004015560e082015181600601555050505050505050565b60065481565b600c818154811015156114c257fe5b9060005260206000209060070201600091509050806000018054600181600116156101000203166002900480601f01602080910402602001604051908101604052809291908181526020018280546001816001161561010002031660029004801561156e5780601f106115435761010080835404028352916020019161156e565b820191906000526020600020905b81548152906001019060200180831161155157829003601f168201915b5050505050908060010154908060020160009054906101000a900473ffffffffffffffffffffffffffffffffffffffff16908060020160149054906101000a900460ff16908060020160159054906101000a900460ff1690806003018054600181600116156101000203166002900480601f01602080910402602001604051908101604052809291908181526020018280546001816001161561010002031660029004801561165e5780601f106116335761010080835404028352916020019161165e565b820191906000526020600020905b81548152906001019060200180831161164157829003601f168201915b5050505050908060040154908060060154905088565b60048181548110151561168357fe5b906000526020600020016000915054906101000a900473ffffffffffffffffffffffffffffffffffffffff1681565b60015481565b60075481565b606060008060008060606000806116d3611b00565b6000809054906101000a900473ffffffffffffffffffffffffffffffffffffffff1673ffffffffffffffffffffffffffffffffffffffff163373ffffffffffffffffffffffffffffffffffffffff1614151561172e57600080fd5b600c8a81548110151561173d57fe5b90600052602060002090600702016101006040519081016040529081600082018054600181600116156101000203166002900480601f0160208091040260200160405190810160405280929190818152602001828054600181600116156101000203166002900480156117f15780601f106117c6576101008083540402835291602001916117f1565b820191906000526020600020905b8154815290600101906020018083116117d457829003601f168201915b50505050508152602001600182015481526020016002820160009054906101000a900473ffffffffffffffffffffffffffffffffffffffff1673ffffffffffffffffffffffffffffffffffffffff1673ffffffffffffffffffffffffffffffffffffffff1681526020016002820160149054906101000a900460ff161515151581526020016002820160159054906101000a900460ff16151515158152602001600382018054600181600116156101000203166002900480601f0160208091040260200160405190810160405280929190818152602001828054600181600116156101000203166002900480156119295780601f106118fe57610100808354040283529160200191611929565b820191906000526020600020905b81548152906001019060200180831161190c57829003601f168201915b50505050508152602001600482015481526020016006820154815250509050806000015181602001518260400151836060015184608001518560a001518660c001518760e001518797508292509850985098509850985098509850985050919395975091939597565b600034905060015434101515156119a857600080fd5b80600360003373ffffffffffffffffffffffffffffffffffffffff1673ffffffffffffffffffffffffffffffffffffffff168152602001908152602001600020600082825401925050819055503460056000828254019250508190555080600360003373ffffffffffffffffffffffffffffffffffffffff1673ffffffffffffffffffffffffffffffffffffffff168152602001908152602001600020541415611a5f576006600081548092919060010191905055505b50565b600a8054600181600116156101000203166002900480601f016020809104026020016040519081016040528092919081815260200182805460018160011615610100020316600290048015611af85780601f10611acd57610100808354040283529160200191611af8565b820191906000526020600020905b815481529060010190602001808311611adb57829003601f168201915b505050505081565b610100604051908101604052806060815260200160008152602001600073ffffffffffffffffffffffffffffffffffffffff1681526020016000151581526020016000151581526020016060815260200160008152602001600081525090565b828054600181600116156101000203166002900490600052602060002090601f016020900481019282601f10611ba157805160ff1916838001178555611bcf565b82800160010185558215611bcf579182015b82811115611bce578251825591602001919060010190611bb3565b5b509050611bdc9190611be0565b5090565b611c0291905b80821115611bfe576000816000905550600101611be6565b5090565b905600a165627a7a723058201b61e3ba9dbb2efd1c54fc5106d2da1a9a66b45b81a3f686302bf6cdcdc507540029a165627a7a723058201fbe4a8ce0951002b30492a018e42062cc2677ef3de04fbc0e999dd2930d39ee0029",
  "source": "pragma solidity ^0.4.24;\n\nimport {Campaign} from './Campaign.sol';\n\n/** @title Campaign Factory \n  * @dev this factory will manage all of the campaigns and make it easy to get an array of deployed campaigns.\n*/\ncontract CampaignFactory {\n    // Array of deployed campaign addresses\n    address[] public deployedCampaigns;\n    \n    /** \n      *\t@dev send msg.sender into new Campaign because won't have access to msg.sender otherwise.  msg.sender in the Campaign contract will be the address of Campaign Factory.\n      * @param minimum amount necessary for contribution\n      * @param databaseKey key used to identify this campaign in centralized database / IPFS\n    */\n    function createCampaign(uint minimum, string databaseKey, uint requestDays, string title, uint goal, string category) public {\n        address newCampaign = new Campaign(minimum, msg.sender, databaseKey, requestDays, title, goal, category);\n        deployedCampaigns.push(newCampaign);\n    }\n    \n    /** @dev Get all deployed campaigns\n      * @return array of deployed campaign addresses\n    */\n    function getDeployedCampaigns() public view returns(address[]) {\n        return deployedCampaigns;\n    }\n}",
  "sourcePath": "/Users/danielliebeskind/Dropbox/Hacking/ethereum/collabonate-react/contracts/CampaignFactory.sol",
  "compiler": {
    "name": "solc",
    "version": "0.4.24+commit.e67f0147.Emscripten.clang"
  },
  "schemaVersion": "2.0.1",
  "updatedAt": "2018-08-21T22:01:29.113Z"
}