{
  "contractName": "Campaign",
  "abi": [
    {
      "constant": true,
      "inputs": [
        {
          "name": "",
          "type": "address"
        }
      ],
      "name": "contributors",
      "outputs": [
        {
          "name": "",
          "type": "uint256"
        }
      ],
      "payable": false,
      "stateMutability": "view",
      "type": "function"
    },
    {
      "constant": true,
      "inputs": [],
      "name": "infoKey",
      "outputs": [
        {
          "name": "",
          "type": "string"
        }
      ],
      "payable": false,
      "stateMutability": "view",
      "type": "function"
    },
    {
      "constant": true,
      "inputs": [],
      "name": "totalContributions",
      "outputs": [
        {
          "name": "",
          "type": "uint256"
        }
      ],
      "payable": false,
      "stateMutability": "view",
      "type": "function"
    },
    {
      "constant": true,
      "inputs": [],
      "name": "goal",
      "outputs": [
        {
          "name": "",
          "type": "uint256"
        }
      ],
      "payable": false,
      "stateMutability": "view",
      "type": "function"
    },
    {
      "constant": true,
      "inputs": [],
      "name": "manager",
      "outputs": [
        {
          "name": "",
          "type": "address"
        }
      ],
      "payable": false,
      "stateMutability": "view",
      "type": "function"
    },
    {
      "constant": true,
      "inputs": [],
      "name": "title",
      "outputs": [
        {
          "name": "",
          "type": "string"
        }
      ],
      "payable": false,
      "stateMutability": "view",
      "type": "function"
    },
    {
      "constant": true,
      "inputs": [],
      "name": "contributorsCount",
      "outputs": [
        {
          "name": "",
          "type": "uint256"
        }
      ],
      "payable": false,
      "stateMutability": "view",
      "type": "function"
    },
    {
      "constant": true,
      "inputs": [
        {
          "name": "",
          "type": "uint256"
        }
      ],
      "name": "requests",
      "outputs": [
        {
          "name": "description",
          "type": "string"
        },
        {
          "name": "value",
          "type": "uint256"
        },
        {
          "name": "recipient",
          "type": "address"
        },
        {
          "name": "complete",
          "type": "bool"
        },
        {
          "name": "overNoLimit",
          "type": "bool"
        },
        {
          "name": "databaseKey",
          "type": "string"
        },
        {
          "name": "noVoteContributionTotal",
          "type": "uint256"
        },
        {
          "name": "createdTimestamp",
          "type": "uint256"
        }
      ],
      "payable": false,
      "stateMutability": "view",
      "type": "function"
    },
    {
      "constant": true,
      "inputs": [
        {
          "name": "",
          "type": "uint256"
        }
      ],
      "name": "contributorAddresses",
      "outputs": [
        {
          "name": "",
          "type": "address"
        }
      ],
      "payable": false,
      "stateMutability": "view",
      "type": "function"
    },
    {
      "constant": true,
      "inputs": [],
      "name": "minimumContribution",
      "outputs": [
        {
          "name": "",
          "type": "uint256"
        }
      ],
      "payable": false,
      "stateMutability": "view",
      "type": "function"
    },
    {
      "constant": true,
      "inputs": [],
      "name": "requestDaysDeadline",
      "outputs": [
        {
          "name": "",
          "type": "uint256"
        }
      ],
      "payable": false,
      "stateMutability": "view",
      "type": "function"
    },
    {
      "constant": true,
      "inputs": [],
      "name": "category",
      "outputs": [
        {
          "name": "",
          "type": "string"
        }
      ],
      "payable": false,
      "stateMutability": "view",
      "type": "function"
    },
    {
      "inputs": [
        {
          "name": "minimum",
          "type": "uint256"
        },
        {
          "name": "creator",
          "type": "address"
        },
        {
          "name": "databaseKey",
          "type": "string"
        },
        {
          "name": "requestDays",
          "type": "uint256"
        },
        {
          "name": "titleInput",
          "type": "string"
        },
        {
          "name": "goalInput",
          "type": "uint256"
        },
        {
          "name": "categoryInput",
          "type": "string"
        }
      ],
      "payable": false,
      "stateMutability": "nonpayable",
      "type": "constructor"
    },
    {
      "constant": false,
      "inputs": [],
      "name": "toggleContractActive",
      "outputs": [],
      "payable": false,
      "stateMutability": "nonpayable",
      "type": "function"
    },
    {
      "constant": false,
      "inputs": [],
      "name": "contribute",
      "outputs": [],
      "payable": true,
      "stateMutability": "payable",
      "type": "function"
    },
    {
      "constant": false,
      "inputs": [
        {
          "name": "description",
          "type": "string"
        },
        {
          "name": "value",
          "type": "uint256"
        },
        {
          "name": "recipient",
          "type": "address"
        },
        {
          "name": "databaseKey",
          "type": "string"
        }
      ],
      "name": "createRequest",
      "outputs": [],
      "payable": false,
      "stateMutability": "nonpayable",
      "type": "function"
    },
    {
      "constant": false,
      "inputs": [
        {
          "name": "index",
          "type": "uint256"
        }
      ],
      "name": "voteNo",
      "outputs": [],
      "payable": false,
      "stateMutability": "nonpayable",
      "type": "function"
    },
    {
      "constant": false,
      "inputs": [
        {
          "name": "index",
          "type": "uint256"
        }
      ],
      "name": "finalizeRequest",
      "outputs": [],
      "payable": false,
      "stateMutability": "nonpayable",
      "type": "function"
    },
    {
      "constant": true,
      "inputs": [
        {
          "name": "index",
          "type": "uint256"
        }
      ],
      "name": "getRequest",
      "outputs": [
        {
          "name": "",
          "type": "string"
        },
        {
          "name": "",
          "type": "uint256"
        },
        {
          "name": "",
          "type": "address"
        },
        {
          "name": "",
          "type": "bool"
        },
        {
          "name": "",
          "type": "bool"
        },
        {
          "name": "",
          "type": "string"
        },
        {
          "name": "",
          "type": "uint256"
        },
        {
          "name": "",
          "type": "uint256"
        }
      ],
      "payable": false,
      "stateMutability": "view",
      "type": "function"
    },
    {
      "constant": true,
      "inputs": [],
      "name": "getSummary",
      "outputs": [
        {
          "name": "",
          "type": "uint256"
        },
        {
          "name": "",
          "type": "uint256"
        },
        {
          "name": "",
          "type": "uint256"
        },
        {
          "name": "",
          "type": "uint256"
        },
        {
          "name": "",
          "type": "uint256"
        },
        {
          "name": "",
          "type": "address"
        },
        {
          "name": "",
          "type": "string"
        },
        {
          "name": "",
          "type": "uint256"
        },
        {
          "name": "",
          "type": "string"
        },
        {
          "name": "",
          "type": "uint256"
        },
        {
          "name": "",
          "type": "string"
        }
      ],
      "payable": false,
      "stateMutability": "view",
      "type": "function"
    },
    {
      "constant": true,
      "inputs": [],
      "name": "getRequestCount",
      "outputs": [
        {
          "name": "",
          "type": "uint256"
        }
      ],
      "payable": false,
      "stateMutability": "view",
      "type": "function"
    },
    {
      "constant": true,
      "inputs": [
        {
          "name": "contributor",
          "type": "address"
        }
      ],
      "name": "getContributionAmount",
      "outputs": [
        {
          "name": "",
          "type": "uint256"
        }
      ],
      "payable": false,
      "stateMutability": "view",
      "type": "function"
    }
  ],
  "bytecode": "0x60806040526000600b60006101000a81548160ff0219169083151502179055503480156200002c57600080fd5b5060405162001f3938038062001f3983398101806040528101908080519060200190929190805190602001909291908051820192919060200180519060200190929190805182019291906020018051906020019092919080518201929190505050856000806101000a81548173ffffffffffffffffffffffffffffffffffffffff021916908373ffffffffffffffffffffffffffffffffffffffff160217905550866001819055508460029080519060200190620000ec92919062000142565b5060006005819055508360078190555082600890805190602001906200011492919062000142565b508160098190555080600a90805190602001906200013492919062000142565b5050505050505050620001f1565b828054600181600116156101000203166002900490600052602060002090601f016020900481019282601f106200018557805160ff1916838001178555620001b6565b82800160010185558215620001b6579182015b82811115620001b557825182559160200191906001019062000198565b5b509050620001c59190620001c9565b5090565b620001ee91905b80821115620001ea576000816000905550600101620001d0565b5090565b90565b611d3880620002016000396000f30060806040526004361061011d576000357c0100000000000000000000000000000000000000000000000000000000900463ffffffff16806303441006146101225780631385d24c1461014f5780631a6f7be5146101665780631f6d494214610193578063283a8b5b146101ea57806332c1f2451461027a57806337c08923146102d15780633fad1834146102fc57806340193883146103275780634051ddac14610352578063481c6a751461051e5780634a79d50c14610575578063654f6509146106055780637569b3d7146106de57806381d12c58146107095780638dd0855714610879578063937e09b1146108e657806393861b6714610911578063c58343ef1461093c578063d7bb99ba14610aac578063ef430aa614610ab6575b600080fd5b34801561012e57600080fd5b5061014d60048036038101908080359060200190929190505050610b46565b005b34801561015b57600080fd5b50610164610cd4565b005b34801561017257600080fd5b5061019160048036038101908080359060200190929190505050610d5b565b005b34801561019f57600080fd5b506101d4600480360381019080803573ffffffffffffffffffffffffffffffffffffffff169060200190929190505050610f58565b6040518082815260200191505060405180910390f35b3480156101f657600080fd5b506101ff610f70565b6040518080602001828103825283818151815260200191508051906020019080838360005b8381101561023f578082015181840152602081019050610224565b50505050905090810190601f16801561026c5780820380516001836020036101000a031916815260200191505b509250505060405180910390f35b34801561028657600080fd5b506102bb600480360381019080803573ffffffffffffffffffffffffffffffffffffffff16906020019092919050505061100e565b6040518082815260200191505060405180910390f35b3480156102dd57600080fd5b506102e6611057565b6040518082815260200191505060405180910390f35b34801561030857600080fd5b5061031161105d565b6040518082815260200191505060405180910390f35b34801561033357600080fd5b5061033c61106a565b6040518082815260200191505060405180910390f35b34801561035e57600080fd5b50610367611070565b604051808c81526020018b81526020018a81526020018981526020018881526020018773ffffffffffffffffffffffffffffffffffffffff1673ffffffffffffffffffffffffffffffffffffffff168152602001806020018681526020018060200185815260200180602001848103845289818151815260200191508051906020019080838360005b8381101561040b5780820151818401526020810190506103f0565b50505050905090810190601f1680156104385780820380516001836020036101000a031916815260200191505b50848103835287818151815260200191508051906020019080838360005b83811015610471578082015181840152602081019050610456565b50505050905090810190601f16801561049e5780820380516001836020036101000a031916815260200191505b50848103825285818151815260200191508051906020019080838360005b838110156104d75780820151818401526020810190506104bc565b50505050905090810190601f1680156105045780820380516001836020036101000a031916815260200191505b509e50505050505050505050505050505060405180910390f35b34801561052a57600080fd5b506105336112cf565b604051808273ffffffffffffffffffffffffffffffffffffffff1673ffffffffffffffffffffffffffffffffffffffff16815260200191505060405180910390f35b34801561058157600080fd5b5061058a6112f4565b6040518080602001828103825283818151815260200191508051906020019080838360005b838110156105ca5780820151818401526020810190506105af565b50505050905090810190601f1680156105f75780820380516001836020036101000a031916815260200191505b509250505060405180910390f35b34801561061157600080fd5b506106dc600480360381019080803590602001908201803590602001908080601f016020809104026020016040519081016040528093929190818152602001838380828437820191505050505050919291929080359060200190929190803573ffffffffffffffffffffffffffffffffffffffff169060200190929190803590602001908201803590602001908080601f0160208091040260200160405190810160405280939291908181526020018383808284378201915050505050509192919290505050611392565b005b3480156106ea57600080fd5b506106f3611566565b6040518082815260200191505060405180910390f35b34801561071557600080fd5b506107346004803603810190808035906020019092919050505061156c565b60405180806020018981526020018873ffffffffffffffffffffffffffffffffffffffff1673ffffffffffffffffffffffffffffffffffffffff16815260200187151515158152602001861515151581526020018060200185815260200184815260200183810383528b818151815260200191508051906020019080838360005b838110156107d05780820151818401526020810190506107b5565b50505050905090810190601f1680156107fd5780820380516001836020036101000a031916815260200191505b50838103825286818151815260200191508051906020019080838360005b8381101561083657808201518184015260208101905061081b565b50505050905090810190601f1680156108635780820380516001836020036101000a031916815260200191505b509a505050505050505050505060405180910390f35b34801561088557600080fd5b506108a46004803603810190808035906020019092919050505061172d565b604051808273ffffffffffffffffffffffffffffffffffffffff1673ffffffffffffffffffffffffffffffffffffffff16815260200191505060405180910390f35b3480156108f257600080fd5b506108fb61176b565b6040518082815260200191505060405180910390f35b34801561091d57600080fd5b50610926611771565b6040518082815260200191505060405180910390f35b34801561094857600080fd5b5061096760048036038101908080359060200190929190505050611777565b60405180806020018981526020018873ffffffffffffffffffffffffffffffffffffffff1673ffffffffffffffffffffffffffffffffffffffff16815260200187151515158152602001861515151581526020018060200185815260200184815260200183810383528b818151815260200191508051906020019080838360005b83811015610a035780820151818401526020810190506109e8565b50505050905090810190601f168015610a305780820380516001836020036101000a031916815260200191505b50838103825286818151815260200191508051906020019080838360005b83811015610a69578082015181840152602081019050610a4e565b50505050905090810190601f168015610a965780820380516001836020036101000a031916815260200191505b509a505050505050505050505060405180910390f35b610ab4611a4b565b005b348015610ac257600080fd5b50610acb611b1b565b6040518080602001828103825283818151815260200191508051906020019080838360005b83811015610b0b578082015181840152602081019050610af0565b50505050905090810190601f168015610b385780820380516001836020036101000a031916815260200191505b509250505060405180910390f35b60008060009054906101000a900473ffffffffffffffffffffffffffffffffffffffff1673ffffffffffffffffffffffffffffffffffffffff163373ffffffffffffffffffffffffffffffffffffffff16141515610ba357600080fd5b600c82815481101515610bb257fe5b906000526020600020906007020190508060020160159054906101000a900460ff16151515610be057600080fd5b8060020160149054906101000a900460ff16151515610bfe57600080fd5b6007546305265c00024203816006015411151515610c1b57600080fd5b80600101543073ffffffffffffffffffffffffffffffffffffffff1631111515610c4457600080fd5b8060020160009054906101000a900473ffffffffffffffffffffffffffffffffffffffff1673ffffffffffffffffffffffffffffffffffffffff166108fc82600101549081150290604051600060405180830381858888f19350505050158015610cb2573d6000803e3d6000fd5b5060018160020160146101000a81548160ff0219169083151502179055505050565b6000809054906101000a900473ffffffffffffffffffffffffffffffffffffffff1673ffffffffffffffffffffffffffffffffffffffff163373ffffffffffffffffffffffffffffffffffffffff16141515610d2f57600080fd5b600b60009054906101000a900460ff1615600b60006101000a81548160ff021916908315150217905550565b6000600c82815481101515610d6c57fe5b906000526020600020906007020190506000600360003373ffffffffffffffffffffffffffffffffffffffff1673ffffffffffffffffffffffffffffffffffffffff16815260200190815260200160002054111515610dca57600080fd5b6007546305265c00024203816006015410151515610de757600080fd5b8060050160003373ffffffffffffffffffffffffffffffffffffffff1673ffffffffffffffffffffffffffffffffffffffff16815260200190815260200160002060009054906101000a900460ff16151515610e4257600080fd5b60018160050160003373ffffffffffffffffffffffffffffffffffffffff1673ffffffffffffffffffffffffffffffffffffffff16815260200190815260200160002060006101000a81548160ff021916908315150217905550600360003373ffffffffffffffffffffffffffffffffffffffff1673ffffffffffffffffffffffffffffffffffffffff168152602001908152602001600020548160040160008282540192505081905550600f610f12600554610f0484600401546064611bb9565b611bec90919063ffffffff16565b101515610f545760018160020160156101000a81548160ff02191690831515021790555060018160020160146101000a81548160ff0219169083151502179055505b5050565b60036020528060005260406000206000915090505481565b60028054600181600116156101000203166002900480601f0160208091040260200160405190810160405280929190818152602001828054600181600116156101000203166002900480156110065780601f10610fdb57610100808354040283529160200191611006565b820191906000526020600020905b815481529060010190602001808311610fe957829003601f168201915b505050505081565b6000600360008373ffffffffffffffffffffffffffffffffffffffff1673ffffffffffffffffffffffffffffffffffffffff168152602001908152602001600020549050919050565b60055481565b6000600c80549050905090565b60095481565b600080600080600080606060006060600060606001543073ffffffffffffffffffffffffffffffffffffffff1631600c805490506006546005546000809054906101000a900473ffffffffffffffffffffffffffffffffffffffff1660026007546008600954600a848054600181600116156101000203166002900480601f01602080910402602001604051908101604052809291908181526020018280546001816001161561010002031660029004801561116d5780601f106111425761010080835404028352916020019161116d565b820191906000526020600020905b81548152906001019060200180831161115057829003601f168201915b50505050509450828054600181600116156101000203166002900480601f0160208091040260200160405190810160405280929190818152602001828054600181600116156101000203166002900480156112095780601f106111de57610100808354040283529160200191611209565b820191906000526020600020905b8154815290600101906020018083116111ec57829003601f168201915b50505050509250808054600181600116156101000203166002900480601f0160208091040260200160405190810160405280929190818152602001828054600181600116156101000203166002900480156112a55780601f1061127a576101008083540402835291602001916112a5565b820191906000526020600020905b81548152906001019060200180831161128857829003601f168201915b505050505090509a509a509a509a509a509a509a509a509a509a509a50909192939495969798999a565b6000809054906101000a900473ffffffffffffffffffffffffffffffffffffffff1681565b60088054600181600116156101000203166002900480601f01602080910402602001604051908101604052809291908181526020018280546001816001161561010002031660029004801561138a5780601f1061135f5761010080835404028352916020019161138a565b820191906000526020600020905b81548152906001019060200180831161136d57829003601f168201915b505050505081565b61139a611c07565b6000809054906101000a900473ffffffffffffffffffffffffffffffffffffffff1673ffffffffffffffffffffffffffffffffffffffff163373ffffffffffffffffffffffffffffffffffffffff161415156113f557600080fd5b610100604051908101604052808681526020018581526020018473ffffffffffffffffffffffffffffffffffffffff16815260200160001515815260200160001515815260200183815260200160008152602001428152509050600c81908060018154018082558091505090600182039060005260206000209060070201600090919290919091506000820151816000019080519060200190611499929190611c67565b506020820151816001015560408201518160020160006101000a81548173ffffffffffffffffffffffffffffffffffffffff021916908373ffffffffffffffffffffffffffffffffffffffff16021790555060608201518160020160146101000a81548160ff02191690831515021790555060808201518160020160156101000a81548160ff02191690831515021790555060a0820151816003019080519060200190611547929190611c67565b5060c0820151816004015560e082015181600601555050505050505050565b60065481565b600c8181548110151561157b57fe5b9060005260206000209060070201600091509050806000018054600181600116156101000203166002900480601f0160208091040260200160405190810160405280929190818152602001828054600181600116156101000203166002900480156116275780601f106115fc57610100808354040283529160200191611627565b820191906000526020600020905b81548152906001019060200180831161160a57829003601f168201915b5050505050908060010154908060020160009054906101000a900473ffffffffffffffffffffffffffffffffffffffff16908060020160149054906101000a900460ff16908060020160159054906101000a900460ff1690806003018054600181600116156101000203166002900480601f0160208091040260200160405190810160405280929190818152602001828054600181600116156101000203166002900480156117175780601f106116ec57610100808354040283529160200191611717565b820191906000526020600020905b8154815290600101906020018083116116fa57829003601f168201915b5050505050908060040154908060060154905088565b60048181548110151561173c57fe5b906000526020600020016000915054906101000a900473ffffffffffffffffffffffffffffffffffffffff1681565b60015481565b60075481565b6060600080600080606060008061178c611c07565b6000809054906101000a900473ffffffffffffffffffffffffffffffffffffffff1673ffffffffffffffffffffffffffffffffffffffff163373ffffffffffffffffffffffffffffffffffffffff161415156117e757600080fd5b600c8a8154811015156117f657fe5b90600052602060002090600702016101006040519081016040529081600082018054600181600116156101000203166002900480601f0160208091040260200160405190810160405280929190818152602001828054600181600116156101000203166002900480156118aa5780601f1061187f576101008083540402835291602001916118aa565b820191906000526020600020905b81548152906001019060200180831161188d57829003601f168201915b50505050508152602001600182015481526020016002820160009054906101000a900473ffffffffffffffffffffffffffffffffffffffff1673ffffffffffffffffffffffffffffffffffffffff1673ffffffffffffffffffffffffffffffffffffffff1681526020016002820160149054906101000a900460ff161515151581526020016002820160159054906101000a900460ff16151515158152602001600382018054600181600116156101000203166002900480601f0160208091040260200160405190810160405280929190818152602001828054600181600116156101000203166002900480156119e25780601f106119b7576101008083540402835291602001916119e2565b820191906000526020600020905b8154815290600101906020018083116119c557829003601f168201915b50505050508152602001600482015481526020016006820154815250509050806000015181602001518260400151836060015184608001518560a001518660c001518760e001518797508292509850985098509850985098509850985050919395975091939597565b60003490506001543410151515611a6157600080fd5b80600360003373ffffffffffffffffffffffffffffffffffffffff1673ffffffffffffffffffffffffffffffffffffffff168152602001908152602001600020600082825401925050819055503460056000828254019250508190555080600360003373ffffffffffffffffffffffffffffffffffffffff1673ffffffffffffffffffffffffffffffffffffffff168152602001908152602001600020541415611b18576006600081548092919060010191905055505b50565b600a8054600181600116156101000203166002900480601f016020809104026020016040519081016040528092919081815260200182805460018160011615610100020316600290048015611bb15780601f10611b8657610100808354040283529160200191611bb1565b820191906000526020600020905b815481529060010190602001808311611b9457829003601f168201915b505050505081565b60008082840290506000841480611bda5750828482811515611bd757fe5b04145b1515611be257fe5b8091505092915050565b6000808284811515611bfa57fe5b0490508091505092915050565b610100604051908101604052806060815260200160008152602001600073ffffffffffffffffffffffffffffffffffffffff1681526020016000151581526020016000151581526020016060815260200160008152602001600081525090565b828054600181600116156101000203166002900490600052602060002090601f016020900481019282601f10611ca857805160ff1916838001178555611cd6565b82800160010185558215611cd6579182015b82811115611cd5578251825591602001919060010190611cba565b5b509050611ce39190611ce7565b5090565b611d0991905b80821115611d05576000816000905550600101611ced565b5090565b905600a165627a7a72305820fd4b03df48025d48da38a642db3214b01be820b57da86c6e49c4c8b1b4ce92f10029",
  "source": "pragma solidity ^0.4.24;\nimport 'zeppelin/contracts/math/SafeMath.sol';\n\n/// @title Fundraising campaign where contributors vote on use of funds.\ncontract Campaign {\n    using SafeMath for uint256;\n\n    address public manager; // Owner/creator of the campaign.\n    uint256 public minimumContribution; // Minimum amount of wei contributor must contribute to the campaign.\n    string public infoKey; // Database/IPFS key (not 100% sure how going to use this yet).\n    mapping(address => uint256) public contributors; // Address of each approver and how much wei/eth each has contributed.\n    address[] public contributorAddresses;\n    uint256 public totalContributions; // Track total contributions, which will differ from this.balance if funds are distributed.\n    uint256 public contributorsCount; // How many contributors are there.  Less important than totalContributions, but still interesting.\n    uint256 public requestDaysDeadline; // Set by the manager when first creating the campaign.  It's known to contributors when they contribute.\n    string public title; // Set by the manager when first creating the campaign.\n    uint256 public goal; // Set by the manager when first creating the campaign.\n    string public category; // Set by the manager when first creating the campaign.\n    bool private stopped = false; // Circuit breaker\n\n    // Requests are considered approved if complete === true && overNoLimit === false.  Denied if overNoLimit === true.\n    struct Request {\n        string description; // Description of the request.  This cannot be changed later, which prevents bait-and-switch.\n        uint256 value; // Quantity of funds requested for distribution.\n        address recipient; // Address of intended recipient of the funds.\n        bool complete; // Whether this request is complete.\n        bool overNoLimit; // Are there no votes from addresses accounting for >= 15% of the total contributions?\n        string databaseKey; // Location of other request-specific assets like images, videos, etc.\n        uint256 noVoteContributionTotal; // Sum of no-votes.  Request is denied if noVoteContributionTotal is ever >= 15% of totalContributions.\n        mapping(address => bool) noVotes; // Which contributors have voted against a request.  Can't vote against a request more than once per address.\n    \t  uint256 createdTimestamp; // Used to calculate the cutoff point where contributors can no longer vote no.\n    }\n    \n    Request[] public requests; // Array of requests.\n\n    // Modifier that restricts the function to only be callable from the manager's address\n    modifier restricted() {\n        require(msg.sender == manager); // Rejects the function if message sender isn't the manager\n        _; // Replaced by the actual function body when the modifier is used.\n    }\n\n    // Circuit breaker functionality\n    modifier stopInEmergency { if (!stopped) _; }\n    modifier onlyInEmergency { if (stopped) _; }\n\n    /**\n      * @dev Initialize the campaign and set total contributions to 0.\n      * @param minimum min amount contributor can contribute to this campaign.\n      * @param creator address of the person creating the campaign.  Necessary because when using a factory, can't pull msg.sender directly.\n\t    * @param databaseKey key that connects this campaign to external resource.  Probably IPFS for content storage.\n      * @param requestDays is set by the manager when first creating the campaign and is known to contributors when they contribute.\n      * @param titleInput is set by the manager when first creating the campaign.\n      * @param goalInput is set by the manager when first creating the campaign.  This is the funding goal for the campaign.\n\t    * @param categoryInput is set by the manager when first creating the campaign.\n    */\n    constructor(uint256 minimum, address creator, string databaseKey, uint256 requestDays, string titleInput, uint256 goalInput, string categoryInput) public {\n        manager = creator;\n        minimumContribution = minimum;\n        infoKey = databaseKey;\n        totalContributions = 0;\n        requestDaysDeadline = requestDays;\n        title = titleInput;\n        goal = goalInput;\n        category = categoryInput;\n    }\n\n    // Circuit breaker functionality\n    function toggleContractActive() restricted public {\n        // You can add an additional modifier that restricts stopping a contract to be based on another action, such as a vote of users\n        stopped = !stopped;\n    }\n\n    /**\n      * @dev Allows contribution to the campaign.  Campaign manager can stop this functionality in an emergency.\n    */    \n    function contribute() public payable {\n        uint256 amount = msg.value;\n        require(msg.value >= minimumContribution);\n       \n        contributors[msg.sender] += amount; // Tracks how much each 'approver' has contributed.\n        totalContributions += msg.value;\n       \n       \t// Increment contributor count only if this is the sender's first contribution. \n        if (contributors[msg.sender] == amount) {\n        \tcontributorsCount++;\t\n        }  \n    }\n\n    /**\n      *\t@dev The request requires no more than 15% of contributors (by % of total contribution) to vote against it for approval.\n      * @param description of the request.\n      * @param value amount of wei/eth the request is asking to be distributed.\n      * @param recipient address the funds will automatically be sent to if the request is approved.\n      * @param databaseKey for IPFS or other database containing request assets (like images/videos/etc).\n    */\n    function createRequest(string description, uint256 value, address recipient, string databaseKey) public restricted {\n        // Initialized with memory keyword because don't need to store this beyond this function.\n        // Push newRequest into requests array, where it will be stored long-term.\n        Request memory newRequest = Request({ \n           description: description,\n           value: value,\n           recipient: recipient,\n           complete: false,\n           overNoLimit: false, // Initialize at false as request isn't over the 15% limit when it's initialized.\n           databaseKey: databaseKey,\n           noVoteContributionTotal: 0, // No contributors have voted against the request yet.\n           /** Using .timestamp here even though it can be manipulated slightly by miners because we want to prevent voting after ~5 days.  \n               Accuracy not that important and it's easier (and more accurage) to estimate timestamp than block number.\n               Passes the 30 second rule. https://consensys.github.io/smart-contract-best-practices/recommendations/#timestamp-dependence\n            */\n           createdTimestamp: block.timestamp \n        });\n        requests.push(newRequest);\n    }\n\n    /**\n      *\t@dev Requests requires no more than 15% of contributors (by % of total contribution) to vote against it for approval.\n      *\t@dev Requests will be denied if this no vote pushes it over the 15% limit.\n      * @param index of the particular request where contributor is voting 'no'.\n    */\n    function voteNo(uint256 index) public {\n        Request storage request = requests[index]; // Use storage keyword because we want to change the request's state.\n        \n        require(contributors[msg.sender] > 0); // Check to see if the sender is a contributor to the campaign.\n        require(request.createdTimestamp >= now - 1000 * 60 * 60 * 24 * requestDaysDeadline ); // Prevents voting if 'now' is more than 5 days from the request creation timestamp.\n        require(!request.noVotes[msg.sender]); //Can't vote twice or change vote.\n        \n        request.noVotes[msg.sender] = true; // Prevents contributor from voting more than once.\n        \n        // Increase the no vote contribution total by the amount of wei/eth that the sender address has contributed.\n        // If contribute more money after have already voted no, it won't count towards no votes on this request,\n        // but it will increase the total contributions, decreasing the % no vote.\n        request.noVoteContributionTotal += contributors[msg.sender];\n\n        // Reject the request if this no vote pushes it over the limit\n        if ((SafeMath.mul(request.noVoteContributionTotal, 100)).div(totalContributions) >= 15) {\n        \trequest.overNoLimit = true;\n        \trequest.complete = true;\n        }\n    }\n\n    /**\n      * @dev require that request isn't over the 15% no vote limit and that it hasn't been completed previously.\n      * @dev can't finalize request if it's not yet past the request days deadline.\n      * @param index of the particular request.\n    */\n    function finalizeRequest(uint256 index) public restricted {\n        Request storage request = requests[index]; // Use storage keyword because we want to change the request's state.\n        \n        require(!request.overNoLimit);\n        require(!request.complete);\n        require(request.createdTimestamp <= now - 1000 * 60 * 60 * 24 * requestDaysDeadline ); // Prevent finalizing request if haven't reached the request days deadline.\n        require(address(this).balance > request.value); // Require there to be enough funds in the campaign.\n\n        request.recipient.transfer(request.value); // Transfer the request total to the recipient address defined when creating the request.\n        request.complete = true;\n    }\n\n    /**\n      * @dev Return request at index.  Restricted, so only manager can access\n      * @param index of the particular request to return.\n    */\n    function getRequest(uint256 index) restricted public view returns(string, uint256, address, bool, bool, string, uint256, uint256) {\n        Request memory request = requests[index];  // Use memory so not changing state.\n        return (request.description, request.value, request.recipient, request.complete, request.overNoLimit, request.databaseKey, request.noVoteContributionTotal, request.createdTimestamp);\n    }\n\n    /**\n      * @dev Returns a summary of the campaign\n    */\n    function getSummary() public view returns(\n        uint256, uint256, uint256, uint256, uint256, address, string, uint256, string, uint256, string\n    ) { // Not changing in data, so 'view'\n        return (\n            minimumContribution,\n            address(this).balance,\n            requests.length,\n            contributorsCount,\n            totalContributions,\n            manager,\n            infoKey,\n            requestDaysDeadline,\n            title, \n            goal, \n            category\n        );\n    }\n\n    function getRequestCount() public view returns(uint256) {\n        return requests.length;\n    }\n\n    function getContributionAmount(address contributor) public view returns(uint256) {\n      return contributors[contributor];\n    }\n\n}",
  "sourcePath": "/Users/danielliebeskind/Dropbox/Hacking/ethereum/collabonate-react/contracts/Campaign.sol",
  "compiler": {
    "name": "solc",
    "version": "0.4.24+commit.e67f0147.Emscripten.clang"
  },
  "schemaVersion": "2.0.1",
  "updatedAt": "2018-08-22T04:02:19.148Z"
}