{
  "contractName": "Campaign",
  "abi": [
    {
      "constant": true,
      "inputs": [
        {
          "name": "",
          "type": "address"
        }
      ],
      "name": "contributors",
      "outputs": [
        {
          "name": "",
          "type": "uint256"
        }
      ],
      "payable": false,
      "stateMutability": "view",
      "type": "function"
    },
    {
      "constant": true,
      "inputs": [],
      "name": "infoKey",
      "outputs": [
        {
          "name": "",
          "type": "string"
        }
      ],
      "payable": false,
      "stateMutability": "view",
      "type": "function"
    },
    {
      "constant": true,
      "inputs": [],
      "name": "totalContributions",
      "outputs": [
        {
          "name": "",
          "type": "uint256"
        }
      ],
      "payable": false,
      "stateMutability": "view",
      "type": "function"
    },
    {
      "constant": true,
      "inputs": [],
      "name": "manager",
      "outputs": [
        {
          "name": "",
          "type": "address"
        }
      ],
      "payable": false,
      "stateMutability": "view",
      "type": "function"
    },
    {
      "constant": true,
      "inputs": [],
      "name": "contributorsCount",
      "outputs": [
        {
          "name": "",
          "type": "uint256"
        }
      ],
      "payable": false,
      "stateMutability": "view",
      "type": "function"
    },
    {
      "constant": true,
      "inputs": [
        {
          "name": "",
          "type": "uint256"
        }
      ],
      "name": "requests",
      "outputs": [
        {
          "name": "description",
          "type": "string"
        },
        {
          "name": "value",
          "type": "uint256"
        },
        {
          "name": "recipient",
          "type": "address"
        },
        {
          "name": "complete",
          "type": "bool"
        },
        {
          "name": "overNoLimit",
          "type": "bool"
        },
        {
          "name": "databaseKey",
          "type": "string"
        },
        {
          "name": "noVoteContributionTotal",
          "type": "uint256"
        },
        {
          "name": "createdTimestamp",
          "type": "uint256"
        }
      ],
      "payable": false,
      "stateMutability": "view",
      "type": "function"
    },
    {
      "constant": true,
      "inputs": [
        {
          "name": "",
          "type": "uint256"
        }
      ],
      "name": "contributorAddresses",
      "outputs": [
        {
          "name": "",
          "type": "address"
        }
      ],
      "payable": false,
      "stateMutability": "view",
      "type": "function"
    },
    {
      "constant": true,
      "inputs": [],
      "name": "minimumContribution",
      "outputs": [
        {
          "name": "",
          "type": "uint256"
        }
      ],
      "payable": false,
      "stateMutability": "view",
      "type": "function"
    },
    {
      "constant": true,
      "inputs": [],
      "name": "requestDaysDeadline",
      "outputs": [
        {
          "name": "",
          "type": "uint256"
        }
      ],
      "payable": false,
      "stateMutability": "view",
      "type": "function"
    },
    {
      "inputs": [
        {
          "name": "minimum",
          "type": "uint256"
        },
        {
          "name": "creator",
          "type": "address"
        },
        {
          "name": "databaseKey",
          "type": "string"
        },
        {
          "name": "requestDays",
          "type": "uint256"
        }
      ],
      "payable": false,
      "stateMutability": "nonpayable",
      "type": "constructor"
    },
    {
      "constant": false,
      "inputs": [
        {
          "name": "amount",
          "type": "uint256"
        }
      ],
      "name": "contribute",
      "outputs": [],
      "payable": true,
      "stateMutability": "payable",
      "type": "function"
    },
    {
      "constant": false,
      "inputs": [
        {
          "name": "description",
          "type": "string"
        },
        {
          "name": "value",
          "type": "uint256"
        },
        {
          "name": "recipient",
          "type": "address"
        },
        {
          "name": "databaseKey",
          "type": "string"
        }
      ],
      "name": "createRequest",
      "outputs": [],
      "payable": false,
      "stateMutability": "nonpayable",
      "type": "function"
    },
    {
      "constant": false,
      "inputs": [
        {
          "name": "index",
          "type": "uint256"
        }
      ],
      "name": "voteNo",
      "outputs": [],
      "payable": false,
      "stateMutability": "nonpayable",
      "type": "function"
    },
    {
      "constant": false,
      "inputs": [
        {
          "name": "index",
          "type": "uint256"
        }
      ],
      "name": "finalizeRequest",
      "outputs": [],
      "payable": false,
      "stateMutability": "nonpayable",
      "type": "function"
    }
  ],
  "bytecode": "0x608060405234801561001057600080fd5b5060405161117738038061117783398101806040528101908080519060200190929190805190602001909291908051820192919060200180519060200190929190505050826000806101000a81548173ffffffffffffffffffffffffffffffffffffffff021916908373ffffffffffffffffffffffffffffffffffffffff1602179055508360018190555081600290805190602001906100b19291906100ca565b506000600581905550806007819055505050505061016f565b828054600181600116156101000203166002900490600052602060002090601f016020900481019282601f1061010b57805160ff1916838001178555610139565b82800160010185558215610139579182015b8281111561013857825182559160200191906001019061011d565b5b509050610146919061014a565b5090565b61016c91905b80821115610168576000816000905550600101610150565b5090565b90565b610ff98061017e6000396000f3006080604052600436106100c5576000357c0100000000000000000000000000000000000000000000000000000000900463ffffffff16806303441006146100ca5780631a6f7be5146100f75780631f6d494214610124578063283a8b5b1461017b57806337c089231461020b578063481c6a7514610236578063654f65091461028d5780637569b3d71461036657806381d12c58146103915780638dd0855714610501578063937e09b11461056e57806393861b6714610599578063c1cbbca7146105c4575b600080fd5b3480156100d657600080fd5b506100f5600480360381019080803590602001909291905050506105e4565b005b34801561010357600080fd5b5061012260048036038101908080359060200190929190505050610749565b005b34801561013057600080fd5b50610165600480360381019080803573ffffffffffffffffffffffffffffffffffffffff169060200190929190505050610937565b6040518082815260200191505060405180910390f35b34801561018757600080fd5b5061019061094f565b6040518080602001828103825283818151815260200191508051906020019080838360005b838110156101d05780820151818401526020810190506101b5565b50505050905090810190601f1680156101fd5780820380516001836020036101000a031916815260200191505b509250505060405180910390f35b34801561021757600080fd5b506102206109ed565b6040518082815260200191505060405180910390f35b34801561024257600080fd5b5061024b6109f3565b604051808273ffffffffffffffffffffffffffffffffffffffff1673ffffffffffffffffffffffffffffffffffffffff16815260200191505060405180910390f35b34801561029957600080fd5b50610364600480360381019080803590602001908201803590602001908080601f016020809104026020016040519081016040528093929190818152602001838380828437820191505050505050919291929080359060200190929190803573ffffffffffffffffffffffffffffffffffffffff169060200190929190803590602001908201803590602001908080601f0160208091040260200160405190810160405280939291908181526020018383808284378201915050505050509192919290505050610a18565b005b34801561037257600080fd5b5061037b610bec565b6040518082815260200191505060405180910390f35b34801561039d57600080fd5b506103bc60048036038101908080359060200190929190505050610bf2565b60405180806020018981526020018873ffffffffffffffffffffffffffffffffffffffff1673ffffffffffffffffffffffffffffffffffffffff16815260200187151515158152602001861515151581526020018060200185815260200184815260200183810383528b818151815260200191508051906020019080838360005b8381101561045857808201518184015260208101905061043d565b50505050905090810190601f1680156104855780820380516001836020036101000a031916815260200191505b50838103825286818151815260200191508051906020019080838360005b838110156104be5780820151818401526020810190506104a3565b50505050905090810190601f1680156104eb5780820380516001836020036101000a031916815260200191505b509a505050505050505050505060405180910390f35b34801561050d57600080fd5b5061052c60048036038101908080359060200190929190505050610db3565b604051808273ffffffffffffffffffffffffffffffffffffffff1673ffffffffffffffffffffffffffffffffffffffff16815260200191505060405180910390f35b34801561057a57600080fd5b50610583610df1565b6040518082815260200191505060405180910390f35b3480156105a557600080fd5b506105ae610df7565b6040518082815260200191505060405180910390f35b6105e260048036038101908080359060200190929190505050610dfd565b005b60008060009054906101000a900473ffffffffffffffffffffffffffffffffffffffff1673ffffffffffffffffffffffffffffffffffffffff163373ffffffffffffffffffffffffffffffffffffffff1614151561064157600080fd5b60088281548110151561065057fe5b906000526020600020906007020190508060020160159054906101000a900460ff1615151561067e57600080fd5b8060020160149054906101000a900460ff1615151561069c57600080fd5b6007546305265c000242038160060154111515156106b957600080fd5b8060020160009054906101000a900473ffffffffffffffffffffffffffffffffffffffff1673ffffffffffffffffffffffffffffffffffffffff166108fc82600101549081150290604051600060405180830381858888f19350505050158015610727573d6000803e3d6000fd5b5060018160020160146101000a81548160ff0219169083151502179055505050565b600060088281548110151561075a57fe5b906000526020600020906007020190506000600360003373ffffffffffffffffffffffffffffffffffffffff1673ffffffffffffffffffffffffffffffffffffffff168152602001908152602001600020541115156107b857600080fd5b6007546305265c0002420381600601541115156107d457600080fd5b8060050160003373ffffffffffffffffffffffffffffffffffffffff1673ffffffffffffffffffffffffffffffffffffffff16815260200190815260200160002060009054906101000a900460ff1615151561082f57600080fd5b60018160050160003373ffffffffffffffffffffffffffffffffffffffff1673ffffffffffffffffffffffffffffffffffffffff16815260200190815260200160002060006101000a81548160ff021916908315150217905550600360003373ffffffffffffffffffffffffffffffffffffffff1673ffffffffffffffffffffffffffffffffffffffff168152602001908152602001600020548160040160008282540192505081905550600f60055482600401548115156108ed57fe5b046064021015156109335760018160020160156101000a81548160ff02191690831515021790555060018160020160146101000a81548160ff0219169083151502179055505b5050565b60036020528060005260406000206000915090505481565b60028054600181600116156101000203166002900480601f0160208091040260200160405190810160405280929190818152602001828054600181600116156101000203166002900480156109e55780601f106109ba576101008083540402835291602001916109e5565b820191906000526020600020905b8154815290600101906020018083116109c857829003601f168201915b505050505081565b60055481565b6000809054906101000a900473ffffffffffffffffffffffffffffffffffffffff1681565b610a20610ec8565b6000809054906101000a900473ffffffffffffffffffffffffffffffffffffffff1673ffffffffffffffffffffffffffffffffffffffff163373ffffffffffffffffffffffffffffffffffffffff16141515610a7b57600080fd5b610100604051908101604052808681526020018581526020018473ffffffffffffffffffffffffffffffffffffffff16815260200160001515815260200160001515815260200183815260200160008152602001428152509050600881908060018154018082558091505090600182039060005260206000209060070201600090919290919091506000820151816000019080519060200190610b1f929190610f28565b506020820151816001015560408201518160020160006101000a81548173ffffffffffffffffffffffffffffffffffffffff021916908373ffffffffffffffffffffffffffffffffffffffff16021790555060608201518160020160146101000a81548160ff02191690831515021790555060808201518160020160156101000a81548160ff02191690831515021790555060a0820151816003019080519060200190610bcd929190610f28565b5060c0820151816004015560e082015181600601555050505050505050565b60065481565b600881815481101515610c0157fe5b9060005260206000209060070201600091509050806000018054600181600116156101000203166002900480601f016020809104026020016040519081016040528092919081815260200182805460018160011615610100020316600290048015610cad5780601f10610c8257610100808354040283529160200191610cad565b820191906000526020600020905b815481529060010190602001808311610c9057829003601f168201915b5050505050908060010154908060020160009054906101000a900473ffffffffffffffffffffffffffffffffffffffff16908060020160149054906101000a900460ff16908060020160159054906101000a900460ff1690806003018054600181600116156101000203166002900480601f016020809104026020016040519081016040528092919081815260200182805460018160011615610100020316600290048015610d9d5780601f10610d7257610100808354040283529160200191610d9d565b820191906000526020600020905b815481529060010190602001808311610d8057829003601f168201915b5050505050908060040154908060060154905088565b600481815481101515610dc257fe5b906000526020600020016000915054906101000a900473ffffffffffffffffffffffffffffffffffffffff1681565b60015481565b60075481565b6001543410151515610e0e57600080fd5b80600360003373ffffffffffffffffffffffffffffffffffffffff1673ffffffffffffffffffffffffffffffffffffffff168152602001908152602001600020600082825401925050819055508060056000828254019250508190555080600360003373ffffffffffffffffffffffffffffffffffffffff1673ffffffffffffffffffffffffffffffffffffffff168152602001908152602001600020541415610ec5576006600081548092919060010191905055505b50565b610100604051908101604052806060815260200160008152602001600073ffffffffffffffffffffffffffffffffffffffff1681526020016000151581526020016000151581526020016060815260200160008152602001600081525090565b828054600181600116156101000203166002900490600052602060002090601f016020900481019282601f10610f6957805160ff1916838001178555610f97565b82800160010185558215610f97579182015b82811115610f96578251825591602001919060010190610f7b565b5b509050610fa49190610fa8565b5090565b610fca91905b80821115610fc6576000816000905550600101610fae565b5090565b905600a165627a7a72305820571a9aef834c75e3e3cd96e0681d530e937710bc0023c0db0227df2d56544ec10029",
  "source": "pragma solidity ^0.4.24;\n\n/// @title Fundraising campaign where contributors vote on use of funds.\ncontract Campaign {\n    address public manager; // Owner/creator of the campaign.\n    uint public minimumContribution; // Minimum amount of wei contributor must contribute to the campaign.\n    string public infoKey; // Database/IPFS key (not 100% sure how going to use this yet).\n    mapping(address => uint) public contributors; // Address of each approver and how much wei/eth each has contributed.\n    address[] public contributorAddresses;\n    uint public totalContributions; // Track total contributions, which will differ from this.balance if funds are distributed.\n    uint public contributorsCount; // How many contributors are there.  Less important than totalContributions, but still interesting.\n    uint public requestDaysDeadline; // Set by the manager when first creating the campaign.  It's known to contributors when they contribute.\n\n    // Requests are considered approved if complete === true && overNoLimit === false.  Denied if overNoLimit === true.\n    struct Request {\n        string description; // Description of the request.  This cannot be changed later, which prevents bait-and-switch.\n        uint value; // Quantity of funds requested for distribution.\n        address recipient; // Address of intended recipient of the funds.\n        bool complete; // Whether this request is complete.\n        bool overNoLimit; // Are there no votes from addresses accounting for >= 15% of the total contributions?\n        string databaseKey; // Location of other request-specific assets like images, videos, etc.\n        uint noVoteContributionTotal; // Sum of no-votes.  Request is denied if noVoteContributionTotal is ever >= 15% of totalContributions.\n        mapping(address => bool) noVotes; // Which contributors have voted against a request.  Can't vote against a request more than once per address.\n    \tuint createdTimestamp; // Used to calculate the cutoff point where contributors can no longer vote no.\n    }\n    \n    Request[] public requests; // Array of requests.\n\n    // Modifier that restricts the function to only be callable from the manager's address\n    modifier restricted() {\n        require(msg.sender == manager); // Rejects the function if message sender isn't the manager\n        _; // Replaced by the actual function body when the modifier is used.\n    }\n\n    /**\n      * @dev Initialize the campaign and set total contributions to 0.\n      * @param minimum min amount contributor can contribute to this campaign.\n      * @param creator address of the person creating the campaign.  Necessary because when using a factory, can't pull msg.sender directly.\n\t  * @param databaseKey key that connects this campaign to external resource.  Probably IPFS for content storage.\n\t  * @param requestDays is set by the manager when first creating the campaign and is known to contributors when they contribute.\n    */\n    constructor(uint minimum, address creator, string databaseKey, uint requestDays) public {\n        manager = creator;\n        minimumContribution = minimum;\n        infoKey = databaseKey;\n        totalContributions = 0;\n        requestDaysDeadline = requestDays;\n    }\n\n    /**\n      * @param amount of wei contributed to the campaign.\n    */\n    function contribute(uint amount) public payable {\n        require(msg.value >= minimumContribution);\n       \n        contributors[msg.sender] += amount; // Tracks how much each 'approver' has contributed.\n        totalContributions += amount;\n       \n       \t// Increment contributor count only if this is the sender's first contribution. \n        if (contributors[msg.sender] == amount) {\n        \tcontributorsCount++;\t\n        }  \n    }\n\n    /**\n      *\t@dev The request requires no more than 15% of contributors (by % of total contribution) to vote against it for approval.\n      * @param description of the request.\n      * @param value amount of wei/eth the request is asking to be distributed.\n      * @param recipient address the funds will automatically be sent to if the request is approved.\n      * @param databaseKey for IPFS or other database containing request assets (like images/videos/etc).\n    */\n    function createRequest(string description, uint value, address recipient, string databaseKey) public restricted {\n        // Initialized with memory keyword because don't need to store this beyond this function.\n        // Push newRequest into requests array, where it will be stored long-term.\n        Request memory newRequest = Request({ \n           description: description,\n           value: value,\n           recipient: recipient,\n           complete: false,\n           overNoLimit: false, // Initialize at false as request isn't over the 15% limit when it's initialized.\n           databaseKey: databaseKey,\n           noVoteContributionTotal: 0, // No contributors have voted against the request yet.\n           /** Using .timestamp here even though it can be manipulated slightly by miners because we want to prevent voting after ~5 days.  \n               Accuracy not that important and it's easier (and more accurage) to estimate timestamp than block number. */\n           createdTimestamp: block.timestamp \n        });\n        requests.push(newRequest);\n    }\n\n    /**\n      *\t@dev Requests requires no more than 15% of contributors (by % of total contribution) to vote against it for approval.\n      *\t@dev Requests will be denied if this no vote pushes it over the 15% limit.\n      * @param index of the particular request where contributor is voting 'no'.\n    */\n    function voteNo(uint index) public {\n        Request storage request = requests[index]; // Use storage keyword because we want to change the request's state.\n        \n        require(contributors[msg.sender] > 0); // Check to see if the sender is a contributor to the campaign.\n        require(request.createdTimestamp > now - 1000 * 60 * 60 * 24 * requestDaysDeadline ); // Prevents voting if 'now' is more than 5 days from the request creation timestamp.\n        require(!request.noVotes[msg.sender]); //Can't vote twice or change vote.\n        \n        request.noVotes[msg.sender] = true; // Prevents contributor from voting more than once.\n        \n        // Increase the no vote contribution total by the amount of wei/eth that the sender address has contributed.\n        request.noVoteContributionTotal += contributors[msg.sender];\n\n        // Reject the request if this no vote pushes it over the limit\n        if (100*(request.noVoteContributionTotal / totalContributions) >= 15) {\n        \trequest.overNoLimit = true;\n        \trequest.complete = true;\n        }\n    }\n\n    /**\n      * @dev require that request isn't over the 15% no vote limit and that it hasn't been completed previously.\n      * @dev can't finalize request if it's not yet past the request days deadline.\n      * @param index of the particular request.\n    */\n    function finalizeRequest(uint index) public restricted {\n        Request storage request = requests[index]; // Use storage keyword because we want to change the request's state.\n        \n        require(!request.overNoLimit);\n        require(!request.complete);\n        require(request.createdTimestamp <= now - 1000 * 60 * 60 * 24 * requestDaysDeadline ); // Prevent finalizing request if haven't reached the request days deadline.\n        \n        request.recipient.transfer(request.value); // Transfer the request total to the recipient address defined when creating the request.\n        request.complete = true;\n    }\n\n}",
  "sourcePath": "/Users/danielliebeskind/Dropbox/Hacking/ethereum/collabonate-react/contracts/Campaign.sol",
  "compiler": {
    "name": "solc",
    "version": "0.4.24+commit.e67f0147.Emscripten.clang"
  },
  "schemaVersion": "2.0.1",
  "updatedAt": "2018-08-20T00:05:24.964Z"
}