{
  "contractName": "Campaign",
  "abi": [
    {
      "constant": true,
      "inputs": [
        {
          "name": "",
          "type": "address"
        }
      ],
      "name": "contributors",
      "outputs": [
        {
          "name": "",
          "type": "uint256"
        }
      ],
      "payable": false,
      "stateMutability": "view",
      "type": "function"
    },
    {
      "constant": true,
      "inputs": [],
      "name": "infoKey",
      "outputs": [
        {
          "name": "",
          "type": "string"
        }
      ],
      "payable": false,
      "stateMutability": "view",
      "type": "function"
    },
    {
      "constant": true,
      "inputs": [],
      "name": "totalContributions",
      "outputs": [
        {
          "name": "",
          "type": "uint256"
        }
      ],
      "payable": false,
      "stateMutability": "view",
      "type": "function"
    },
    {
      "constant": true,
      "inputs": [],
      "name": "goal",
      "outputs": [
        {
          "name": "",
          "type": "uint256"
        }
      ],
      "payable": false,
      "stateMutability": "view",
      "type": "function"
    },
    {
      "constant": true,
      "inputs": [],
      "name": "manager",
      "outputs": [
        {
          "name": "",
          "type": "address"
        }
      ],
      "payable": false,
      "stateMutability": "view",
      "type": "function"
    },
    {
      "constant": true,
      "inputs": [],
      "name": "title",
      "outputs": [
        {
          "name": "",
          "type": "string"
        }
      ],
      "payable": false,
      "stateMutability": "view",
      "type": "function"
    },
    {
      "constant": true,
      "inputs": [],
      "name": "contributorsCount",
      "outputs": [
        {
          "name": "",
          "type": "uint256"
        }
      ],
      "payable": false,
      "stateMutability": "view",
      "type": "function"
    },
    {
      "constant": true,
      "inputs": [
        {
          "name": "",
          "type": "uint256"
        }
      ],
      "name": "requests",
      "outputs": [
        {
          "name": "description",
          "type": "string"
        },
        {
          "name": "value",
          "type": "uint256"
        },
        {
          "name": "recipient",
          "type": "address"
        },
        {
          "name": "complete",
          "type": "bool"
        },
        {
          "name": "overNoLimit",
          "type": "bool"
        },
        {
          "name": "databaseKey",
          "type": "string"
        },
        {
          "name": "noVoteContributionTotal",
          "type": "uint256"
        },
        {
          "name": "createdTimestamp",
          "type": "uint256"
        }
      ],
      "payable": false,
      "stateMutability": "view",
      "type": "function"
    },
    {
      "constant": true,
      "inputs": [
        {
          "name": "",
          "type": "uint256"
        }
      ],
      "name": "contributorAddresses",
      "outputs": [
        {
          "name": "",
          "type": "address"
        }
      ],
      "payable": false,
      "stateMutability": "view",
      "type": "function"
    },
    {
      "constant": true,
      "inputs": [],
      "name": "minimumContribution",
      "outputs": [
        {
          "name": "",
          "type": "uint256"
        }
      ],
      "payable": false,
      "stateMutability": "view",
      "type": "function"
    },
    {
      "constant": true,
      "inputs": [],
      "name": "requestDaysDeadline",
      "outputs": [
        {
          "name": "",
          "type": "uint256"
        }
      ],
      "payable": false,
      "stateMutability": "view",
      "type": "function"
    },
    {
      "constant": true,
      "inputs": [],
      "name": "category",
      "outputs": [
        {
          "name": "",
          "type": "string"
        }
      ],
      "payable": false,
      "stateMutability": "view",
      "type": "function"
    },
    {
      "inputs": [
        {
          "name": "minimum",
          "type": "uint256"
        },
        {
          "name": "creator",
          "type": "address"
        },
        {
          "name": "databaseKey",
          "type": "string"
        },
        {
          "name": "requestDays",
          "type": "uint256"
        },
        {
          "name": "titleInput",
          "type": "string"
        },
        {
          "name": "goalInput",
          "type": "uint256"
        },
        {
          "name": "categoryInput",
          "type": "string"
        }
      ],
      "payable": false,
      "stateMutability": "nonpayable",
      "type": "constructor"
    },
    {
      "constant": false,
      "inputs": [],
      "name": "toggleContractActive",
      "outputs": [],
      "payable": false,
      "stateMutability": "nonpayable",
      "type": "function"
    },
    {
      "constant": false,
      "inputs": [],
      "name": "contribute",
      "outputs": [],
      "payable": true,
      "stateMutability": "payable",
      "type": "function"
    },
    {
      "constant": false,
      "inputs": [
        {
          "name": "description",
          "type": "string"
        },
        {
          "name": "value",
          "type": "uint256"
        },
        {
          "name": "recipient",
          "type": "address"
        },
        {
          "name": "databaseKey",
          "type": "string"
        }
      ],
      "name": "createRequest",
      "outputs": [],
      "payable": false,
      "stateMutability": "nonpayable",
      "type": "function"
    },
    {
      "constant": false,
      "inputs": [
        {
          "name": "index",
          "type": "uint256"
        }
      ],
      "name": "voteNo",
      "outputs": [],
      "payable": false,
      "stateMutability": "nonpayable",
      "type": "function"
    },
    {
      "constant": false,
      "inputs": [
        {
          "name": "index",
          "type": "uint256"
        }
      ],
      "name": "finalizeRequest",
      "outputs": [],
      "payable": false,
      "stateMutability": "nonpayable",
      "type": "function"
    },
    {
      "constant": true,
      "inputs": [
        {
          "name": "index",
          "type": "uint256"
        }
      ],
      "name": "getRequest",
      "outputs": [
        {
          "name": "",
          "type": "string"
        },
        {
          "name": "",
          "type": "uint256"
        },
        {
          "name": "",
          "type": "address"
        },
        {
          "name": "",
          "type": "bool"
        },
        {
          "name": "",
          "type": "bool"
        },
        {
          "name": "",
          "type": "string"
        },
        {
          "name": "",
          "type": "uint256"
        },
        {
          "name": "",
          "type": "uint256"
        }
      ],
      "payable": false,
      "stateMutability": "view",
      "type": "function"
    },
    {
      "constant": true,
      "inputs": [],
      "name": "getSummary",
      "outputs": [
        {
          "name": "",
          "type": "uint256"
        },
        {
          "name": "",
          "type": "uint256"
        },
        {
          "name": "",
          "type": "uint256"
        },
        {
          "name": "",
          "type": "uint256"
        },
        {
          "name": "",
          "type": "uint256"
        },
        {
          "name": "",
          "type": "address"
        },
        {
          "name": "",
          "type": "string"
        },
        {
          "name": "",
          "type": "uint256"
        },
        {
          "name": "",
          "type": "string"
        },
        {
          "name": "",
          "type": "uint256"
        },
        {
          "name": "",
          "type": "string"
        }
      ],
      "payable": false,
      "stateMutability": "view",
      "type": "function"
    },
    {
      "constant": true,
      "inputs": [],
      "name": "getRequestCount",
      "outputs": [
        {
          "name": "",
          "type": "uint256"
        }
      ],
      "payable": false,
      "stateMutability": "view",
      "type": "function"
    },
    {
      "constant": true,
      "inputs": [
        {
          "name": "contributor",
          "type": "address"
        }
      ],
      "name": "getContributionAmount",
      "outputs": [
        {
          "name": "",
          "type": "uint256"
        }
      ],
      "payable": false,
      "stateMutability": "view",
      "type": "function"
    },
    {
      "constant": true,
      "inputs": [
        {
          "name": "index",
          "type": "uint256"
        },
        {
          "name": "contributor",
          "type": "address"
        }
      ],
      "name": "getRequestNoVotes",
      "outputs": [
        {
          "name": "",
          "type": "bool"
        }
      ],
      "payable": false,
      "stateMutability": "view",
      "type": "function"
    }
  ],
  "bytecode": "0x60806040526000600b60006101000a81548160ff0219169083151502179055503480156200002c57600080fd5b50604051620020233803806200202383398101806040528101908080519060200190929190805190602001909291908051820192919060200180519060200190929190805182019291906020018051906020019092919080518201929190505050856000806101000a81548173ffffffffffffffffffffffffffffffffffffffff021916908373ffffffffffffffffffffffffffffffffffffffff160217905550866001819055508460029080519060200190620000ec92919062000142565b5060006005819055508360078190555082600890805190602001906200011492919062000142565b508160098190555080600a90805190602001906200013492919062000142565b5050505050505050620001f1565b828054600181600116156101000203166002900490600052602060002090601f016020900481019282601f106200018557805160ff1916838001178555620001b6565b82800160010185558215620001b6579182015b82811115620001b557825182559160200191906001019062000198565b5b509050620001c59190620001c9565b5090565b620001ee91905b80821115620001ea576000816000905550600101620001d0565b5090565b90565b611e2280620002016000396000f300608060405260043610610128576000357c0100000000000000000000000000000000000000000000000000000000900463ffffffff168063034410061461012d5780631385d24c1461015a5780631a6f7be5146101715780631f6d49421461019e578063283a8b5b146101f557806332c1f2451461028557806337c08923146102dc5780633fad18341461030757806340193883146103325780634051ddac1461035d578063481c6a75146105295780634a79d50c14610580578063654f6509146106105780637569b3d7146106e95780637712172d1461071457806381d12c58146107795780638dd08557146108e9578063937e09b11461095657806393861b6714610981578063c58343ef146109ac578063d7bb99ba14610b1c578063ef430aa614610b26575b600080fd5b34801561013957600080fd5b5061015860048036038101908080359060200190929190505050610bb6565b005b34801561016657600080fd5b5061016f610d44565b005b34801561017d57600080fd5b5061019c60048036038101908080359060200190929190505050610dcb565b005b3480156101aa57600080fd5b506101df600480360381019080803573ffffffffffffffffffffffffffffffffffffffff169060200190929190505050610fc8565b6040518082815260200191505060405180910390f35b34801561020157600080fd5b5061020a610fe0565b6040518080602001828103825283818151815260200191508051906020019080838360005b8381101561024a57808201518184015260208101905061022f565b50505050905090810190601f1680156102775780820380516001836020036101000a031916815260200191505b509250505060405180910390f35b34801561029157600080fd5b506102c6600480360381019080803573ffffffffffffffffffffffffffffffffffffffff16906020019092919050505061107e565b6040518082815260200191505060405180910390f35b3480156102e857600080fd5b506102f16110c7565b6040518082815260200191505060405180910390f35b34801561031357600080fd5b5061031c6110cd565b6040518082815260200191505060405180910390f35b34801561033e57600080fd5b506103476110da565b6040518082815260200191505060405180910390f35b34801561036957600080fd5b506103726110e0565b604051808c81526020018b81526020018a81526020018981526020018881526020018773ffffffffffffffffffffffffffffffffffffffff1673ffffffffffffffffffffffffffffffffffffffff168152602001806020018681526020018060200185815260200180602001848103845289818151815260200191508051906020019080838360005b838110156104165780820151818401526020810190506103fb565b50505050905090810190601f1680156104435780820380516001836020036101000a031916815260200191505b50848103835287818151815260200191508051906020019080838360005b8381101561047c578082015181840152602081019050610461565b50505050905090810190601f1680156104a95780820380516001836020036101000a031916815260200191505b50848103825285818151815260200191508051906020019080838360005b838110156104e25780820151818401526020810190506104c7565b50505050905090810190601f16801561050f5780820380516001836020036101000a031916815260200191505b509e50505050505050505050505050505060405180910390f35b34801561053557600080fd5b5061053e61133f565b604051808273ffffffffffffffffffffffffffffffffffffffff1673ffffffffffffffffffffffffffffffffffffffff16815260200191505060405180910390f35b34801561058c57600080fd5b50610595611364565b6040518080602001828103825283818151815260200191508051906020019080838360005b838110156105d55780820151818401526020810190506105ba565b50505050905090810190601f1680156106025780820380516001836020036101000a031916815260200191505b509250505060405180910390f35b34801561061c57600080fd5b506106e7600480360381019080803590602001908201803590602001908080601f016020809104026020016040519081016040528093929190818152602001838380828437820191505050505050919291929080359060200190929190803573ffffffffffffffffffffffffffffffffffffffff169060200190929190803590602001908201803590602001908080601f0160208091040260200160405190810160405280939291908181526020018383808284378201915050505050509192919290505050611402565b005b3480156106f557600080fd5b506106fe6115d6565b6040518082815260200191505060405180910390f35b34801561072057600080fd5b5061075f60048036038101908080359060200190929190803573ffffffffffffffffffffffffffffffffffffffff1690602001909291905050506115dc565b604051808215151515815260200191505060405180910390f35b34801561078557600080fd5b506107a460048036038101908080359060200190929190505050611656565b60405180806020018981526020018873ffffffffffffffffffffffffffffffffffffffff1673ffffffffffffffffffffffffffffffffffffffff16815260200187151515158152602001861515151581526020018060200185815260200184815260200183810383528b818151815260200191508051906020019080838360005b83811015610840578082015181840152602081019050610825565b50505050905090810190601f16801561086d5780820380516001836020036101000a031916815260200191505b50838103825286818151815260200191508051906020019080838360005b838110156108a657808201518184015260208101905061088b565b50505050905090810190601f1680156108d35780820380516001836020036101000a031916815260200191505b509a505050505050505050505060405180910390f35b3480156108f557600080fd5b5061091460048036038101908080359060200190929190505050611817565b604051808273ffffffffffffffffffffffffffffffffffffffff1673ffffffffffffffffffffffffffffffffffffffff16815260200191505060405180910390f35b34801561096257600080fd5b5061096b611855565b6040518082815260200191505060405180910390f35b34801561098d57600080fd5b5061099661185b565b6040518082815260200191505060405180910390f35b3480156109b857600080fd5b506109d760048036038101908080359060200190929190505050611861565b60405180806020018981526020018873ffffffffffffffffffffffffffffffffffffffff1673ffffffffffffffffffffffffffffffffffffffff16815260200187151515158152602001861515151581526020018060200185815260200184815260200183810383528b818151815260200191508051906020019080838360005b83811015610a73578082015181840152602081019050610a58565b50505050905090810190601f168015610aa05780820380516001836020036101000a031916815260200191505b50838103825286818151815260200191508051906020019080838360005b83811015610ad9578082015181840152602081019050610abe565b50505050905090810190601f168015610b065780820380516001836020036101000a031916815260200191505b509a505050505050505050505060405180910390f35b610b24611b35565b005b348015610b3257600080fd5b50610b3b611c05565b6040518080602001828103825283818151815260200191508051906020019080838360005b83811015610b7b578082015181840152602081019050610b60565b50505050905090810190601f168015610ba85780820380516001836020036101000a031916815260200191505b509250505060405180910390f35b60008060009054906101000a900473ffffffffffffffffffffffffffffffffffffffff1673ffffffffffffffffffffffffffffffffffffffff163373ffffffffffffffffffffffffffffffffffffffff16141515610c1357600080fd5b600c82815481101515610c2257fe5b906000526020600020906007020190508060020160159054906101000a900460ff16151515610c5057600080fd5b8060020160149054906101000a900460ff16151515610c6e57600080fd5b6007546305265c00024203816006015411151515610c8b57600080fd5b80600101543073ffffffffffffffffffffffffffffffffffffffff1631111515610cb457600080fd5b8060020160009054906101000a900473ffffffffffffffffffffffffffffffffffffffff1673ffffffffffffffffffffffffffffffffffffffff166108fc82600101549081150290604051600060405180830381858888f19350505050158015610d22573d6000803e3d6000fd5b5060018160020160146101000a81548160ff0219169083151502179055505050565b6000809054906101000a900473ffffffffffffffffffffffffffffffffffffffff1673ffffffffffffffffffffffffffffffffffffffff163373ffffffffffffffffffffffffffffffffffffffff16141515610d9f57600080fd5b600b60009054906101000a900460ff1615600b60006101000a81548160ff021916908315150217905550565b6000600c82815481101515610ddc57fe5b906000526020600020906007020190506000600360003373ffffffffffffffffffffffffffffffffffffffff1673ffffffffffffffffffffffffffffffffffffffff16815260200190815260200160002054111515610e3a57600080fd5b6007546305265c00024203816006015410151515610e5757600080fd5b8060050160003373ffffffffffffffffffffffffffffffffffffffff1673ffffffffffffffffffffffffffffffffffffffff16815260200190815260200160002060009054906101000a900460ff16151515610eb257600080fd5b60018160050160003373ffffffffffffffffffffffffffffffffffffffff1673ffffffffffffffffffffffffffffffffffffffff16815260200190815260200160002060006101000a81548160ff021916908315150217905550600360003373ffffffffffffffffffffffffffffffffffffffff1673ffffffffffffffffffffffffffffffffffffffff168152602001908152602001600020548160040160008282540192505081905550600f610f82600554610f7484600401546064611ca3565b611cd690919063ffffffff16565b101515610fc45760018160020160156101000a81548160ff02191690831515021790555060018160020160146101000a81548160ff0219169083151502179055505b5050565b60036020528060005260406000206000915090505481565b60028054600181600116156101000203166002900480601f0160208091040260200160405190810160405280929190818152602001828054600181600116156101000203166002900480156110765780601f1061104b57610100808354040283529160200191611076565b820191906000526020600020905b81548152906001019060200180831161105957829003601f168201915b505050505081565b6000600360008373ffffffffffffffffffffffffffffffffffffffff1673ffffffffffffffffffffffffffffffffffffffff168152602001908152602001600020549050919050565b60055481565b6000600c80549050905090565b60095481565b600080600080600080606060006060600060606001543073ffffffffffffffffffffffffffffffffffffffff1631600c805490506006546005546000809054906101000a900473ffffffffffffffffffffffffffffffffffffffff1660026007546008600954600a848054600181600116156101000203166002900480601f0160208091040260200160405190810160405280929190818152602001828054600181600116156101000203166002900480156111dd5780601f106111b2576101008083540402835291602001916111dd565b820191906000526020600020905b8154815290600101906020018083116111c057829003601f168201915b50505050509450828054600181600116156101000203166002900480601f0160208091040260200160405190810160405280929190818152602001828054600181600116156101000203166002900480156112795780601f1061124e57610100808354040283529160200191611279565b820191906000526020600020905b81548152906001019060200180831161125c57829003601f168201915b50505050509250808054600181600116156101000203166002900480601f0160208091040260200160405190810160405280929190818152602001828054600181600116156101000203166002900480156113155780601f106112ea57610100808354040283529160200191611315565b820191906000526020600020905b8154815290600101906020018083116112f857829003601f168201915b505050505090509a509a509a509a509a509a509a509a509a509a509a50909192939495969798999a565b6000809054906101000a900473ffffffffffffffffffffffffffffffffffffffff1681565b60088054600181600116156101000203166002900480601f0160208091040260200160405190810160405280929190818152602001828054600181600116156101000203166002900480156113fa5780601f106113cf576101008083540402835291602001916113fa565b820191906000526020600020905b8154815290600101906020018083116113dd57829003601f168201915b505050505081565b61140a611cf1565b6000809054906101000a900473ffffffffffffffffffffffffffffffffffffffff1673ffffffffffffffffffffffffffffffffffffffff163373ffffffffffffffffffffffffffffffffffffffff1614151561146557600080fd5b610100604051908101604052808681526020018581526020018473ffffffffffffffffffffffffffffffffffffffff16815260200160001515815260200160001515815260200183815260200160008152602001428152509050600c81908060018154018082558091505090600182039060005260206000209060070201600090919290919091506000820151816000019080519060200190611509929190611d51565b506020820151816001015560408201518160020160006101000a81548173ffffffffffffffffffffffffffffffffffffffff021916908373ffffffffffffffffffffffffffffffffffffffff16021790555060608201518160020160146101000a81548160ff02191690831515021790555060808201518160020160156101000a81548160ff02191690831515021790555060a08201518160030190805190602001906115b7929190611d51565b5060c0820151816004015560e082015181600601555050505050505050565b60065481565b600080600c848154811015156115ee57fe5b906000526020600020906007020190508060050160008473ffffffffffffffffffffffffffffffffffffffff1673ffffffffffffffffffffffffffffffffffffffff16815260200190815260200160002060009054906101000a900460ff1691505092915050565b600c8181548110151561166557fe5b9060005260206000209060070201600091509050806000018054600181600116156101000203166002900480601f0160208091040260200160405190810160405280929190818152602001828054600181600116156101000203166002900480156117115780601f106116e657610100808354040283529160200191611711565b820191906000526020600020905b8154815290600101906020018083116116f457829003601f168201915b5050505050908060010154908060020160009054906101000a900473ffffffffffffffffffffffffffffffffffffffff16908060020160149054906101000a900460ff16908060020160159054906101000a900460ff1690806003018054600181600116156101000203166002900480601f0160208091040260200160405190810160405280929190818152602001828054600181600116156101000203166002900480156118015780601f106117d657610100808354040283529160200191611801565b820191906000526020600020905b8154815290600101906020018083116117e457829003601f168201915b5050505050908060040154908060060154905088565b60048181548110151561182657fe5b906000526020600020016000915054906101000a900473ffffffffffffffffffffffffffffffffffffffff1681565b60015481565b60075481565b60606000806000806060600080611876611cf1565b6000809054906101000a900473ffffffffffffffffffffffffffffffffffffffff1673ffffffffffffffffffffffffffffffffffffffff163373ffffffffffffffffffffffffffffffffffffffff161415156118d157600080fd5b600c8a8154811015156118e057fe5b90600052602060002090600702016101006040519081016040529081600082018054600181600116156101000203166002900480601f0160208091040260200160405190810160405280929190818152602001828054600181600116156101000203166002900480156119945780601f1061196957610100808354040283529160200191611994565b820191906000526020600020905b81548152906001019060200180831161197757829003601f168201915b50505050508152602001600182015481526020016002820160009054906101000a900473ffffffffffffffffffffffffffffffffffffffff1673ffffffffffffffffffffffffffffffffffffffff1673ffffffffffffffffffffffffffffffffffffffff1681526020016002820160149054906101000a900460ff161515151581526020016002820160159054906101000a900460ff16151515158152602001600382018054600181600116156101000203166002900480601f016020809104026020016040519081016040528092919081815260200182805460018160011615610100020316600290048015611acc5780601f10611aa157610100808354040283529160200191611acc565b820191906000526020600020905b815481529060010190602001808311611aaf57829003601f168201915b50505050508152602001600482015481526020016006820154815250509050806000015181602001518260400151836060015184608001518560a001518660c001518760e001518797508292509850985098509850985098509850985050919395975091939597565b60003490506001543410151515611b4b57600080fd5b80600360003373ffffffffffffffffffffffffffffffffffffffff1673ffffffffffffffffffffffffffffffffffffffff168152602001908152602001600020600082825401925050819055503460056000828254019250508190555080600360003373ffffffffffffffffffffffffffffffffffffffff1673ffffffffffffffffffffffffffffffffffffffff168152602001908152602001600020541415611c02576006600081548092919060010191905055505b50565b600a8054600181600116156101000203166002900480601f016020809104026020016040519081016040528092919081815260200182805460018160011615610100020316600290048015611c9b5780601f10611c7057610100808354040283529160200191611c9b565b820191906000526020600020905b815481529060010190602001808311611c7e57829003601f168201915b505050505081565b60008082840290506000841480611cc45750828482811515611cc157fe5b04145b1515611ccc57fe5b8091505092915050565b6000808284811515611ce457fe5b0490508091505092915050565b610100604051908101604052806060815260200160008152602001600073ffffffffffffffffffffffffffffffffffffffff1681526020016000151581526020016000151581526020016060815260200160008152602001600081525090565b828054600181600116156101000203166002900490600052602060002090601f016020900481019282601f10611d9257805160ff1916838001178555611dc0565b82800160010185558215611dc0579182015b82811115611dbf578251825591602001919060010190611da4565b5b509050611dcd9190611dd1565b5090565b611df391905b80821115611def576000816000905550600101611dd7565b5090565b905600a165627a7a723058208584f82b7803b491c3110ae113945daa939a437ff69a07c86b350ea52e26362a0029",
  "source": "pragma solidity ^0.4.24;\n// Uses SafeMath library for extra security.\nimport 'zeppelin/contracts/math/SafeMath.sol';\n\n/// @title Fundraising campaign where contributors vote on use of funds.\ncontract Campaign {\n    using SafeMath for uint256;\n\n    address public manager; // Owner/creator of the campaign.\n    uint256 public minimumContribution; // Minimum amount of wei contributor must contribute to the campaign.\n    string public infoKey; // Database/IPFS key (not 100% sure how going to use this yet).\n    mapping(address => uint256) public contributors; // Address of each approver and how much wei/eth each has contributed.\n    address[] public contributorAddresses;\n    uint256 public totalContributions; // Track total contributions, which will differ from this.balance if funds are distributed.\n    uint256 public contributorsCount; // How many contributors are there.  Less important than totalContributions, but still interesting.\n    uint256 public requestDaysDeadline; // Set by the manager when first creating the campaign.  It's known to contributors when they contribute.\n    string public title; // Set by the manager when first creating the campaign.\n    uint256 public goal; // Set by the manager when first creating the campaign.\n    string public category; // Set by the manager when first creating the campaign.\n    bool private stopped = false; // Circuit breaker\n\n    // Requests are considered approved if complete === true && overNoLimit === false.  Denied if overNoLimit === true.\n    struct Request {\n        string description; // Description of the request.  This cannot be changed later, which prevents bait-and-switch.\n        uint256 value; // Quantity of funds requested for distribution.\n        address recipient; // Address of intended recipient of the funds.\n        bool complete; // Whether this request is complete.\n        bool overNoLimit; // Are there no votes from addresses accounting for >= 15% of the total contributions?\n        string databaseKey; // Location of other request-specific assets like images, videos, etc.\n        uint256 noVoteContributionTotal; // Sum of no-votes.  Request is denied if noVoteContributionTotal is ever >= 15% of totalContributions.\n        mapping(address => bool) noVotes; // Which contributors have voted against a request.  Can't vote against a request more than once per address.\n    \t  uint256 createdTimestamp; // Used to calculate the cutoff point where contributors can no longer vote no.\n    }\n    \n    Request[] public requests; // Array of requests.\n\n    // Modifier that restricts the function to only be callable from the manager's address\n    modifier restricted() {\n        require(msg.sender == manager); // Rejects the function if message sender isn't the manager\n        _; // Replaced by the actual function body when the modifier is used.\n    }\n\n    // Circuit breaker functionality\n    modifier stopInEmergency { if (!stopped) _; }\n    modifier onlyInEmergency { if (stopped) _; }\n\n    /**\n      * @dev Initialize the campaign and set total contributions to 0.\n      * @param minimum min amount contributor can contribute to this campaign.\n      * @param creator address of the person creating the campaign.  Necessary because when using a factory, can't pull msg.sender directly.\n\t    * @param databaseKey key that connects this campaign to external resource.  Probably IPFS for content storage.\n      * @param requestDays is set by the manager when first creating the campaign and is known to contributors when they contribute.\n      * @param titleInput is set by the manager when first creating the campaign.\n      * @param goalInput is set by the manager when first creating the campaign.  This is the funding goal for the campaign.\n\t    * @param categoryInput is set by the manager when first creating the campaign.\n    */\n    constructor(uint256 minimum, address creator, string databaseKey, uint256 requestDays, string titleInput, uint256 goalInput, string categoryInput) public {\n        manager = creator;\n        minimumContribution = minimum;\n        infoKey = databaseKey;\n        totalContributions = 0;\n        requestDaysDeadline = requestDays;\n        title = titleInput;\n        goal = goalInput;\n        category = categoryInput;\n    }\n\n    // Circuit breaker functionality\n    function toggleContractActive() restricted public {\n        // You can add an additional modifier that restricts stopping a contract to be based on another action, such as a vote of users\n        stopped = !stopped;\n    }\n\n    /**\n      * @dev Allows contribution to the campaign.  Campaign manager can stop this functionality in an emergency.\n    */    \n    function contribute() public payable {\n        uint256 amount = msg.value;\n        require(msg.value >= minimumContribution);\n       \n        contributors[msg.sender] += amount; // Tracks how much each 'approver' has contributed.\n        totalContributions += msg.value;\n       \n       \t// Increment contributor count only if this is the sender's first contribution. \n        if (contributors[msg.sender] == amount) {\n        \tcontributorsCount++;\t\n        }  \n    }\n\n    /**\n      *\t@dev The request requires no more than 15% of contributors (by % of total contribution) to vote against it for approval.\n      * @param description of the request.\n      * @param value amount of wei/eth the request is asking to be distributed.\n      * @param recipient address the funds will automatically be sent to if the request is approved.\n      * @param databaseKey for IPFS or other database containing request assets (like images/videos/etc).\n    */\n    function createRequest(string description, uint256 value, address recipient, string databaseKey) public restricted {\n        // Initialized with memory keyword because don't need to store this beyond this function.\n        // Push newRequest into requests array, where it will be stored long-term.\n        Request memory newRequest = Request({ \n           description: description,\n           value: value,\n           recipient: recipient,\n           complete: false,\n           overNoLimit: false, // Initialize at false as request isn't over the 15% limit when it's initialized.\n           databaseKey: databaseKey,\n           noVoteContributionTotal: 0, // No contributors have voted against the request yet.\n           /** Using .timestamp here even though it can be manipulated slightly by miners because we want to prevent voting after ~5 days.  \n               Accuracy not that important and it's easier (and more accurage) to estimate timestamp than block number.\n               Passes the 30 second rule. https://consensys.github.io/smart-contract-best-practices/recommendations/#timestamp-dependence\n            */\n           createdTimestamp: block.timestamp \n        });\n        requests.push(newRequest);\n    }\n\n    /**\n      *\t@dev Requests requires no more than 15% of contributors (by % of total contribution) to vote against it for approval.\n      *\t@dev Requests will be denied if this no vote pushes it over the 15% limit.\n      * @param index of the particular request where contributor is voting 'no'.\n    */\n    function voteNo(uint256 index) public {\n        Request storage request = requests[index]; // Use storage keyword because we want to change the request's state.\n        \n        require(contributors[msg.sender] > 0); // Check to see if the sender is a contributor to the campaign.\n        require(request.createdTimestamp >= now - 1000 * 60 * 60 * 24 * requestDaysDeadline ); // Prevents voting if 'now' is more than 5 days from the request creation timestamp.\n        require(!request.noVotes[msg.sender]); //Can't vote twice or change vote.\n        \n        request.noVotes[msg.sender] = true; // Prevents contributor from voting more than once.\n        \n        // Increase the no vote contribution total by the amount of wei/eth that the sender address has contributed.\n        // If contribute more money after have already voted no, it won't count towards no votes on this request,\n        // but it will increase the total contributions, decreasing the % no vote.\n        request.noVoteContributionTotal += contributors[msg.sender];\n\n        // Reject the request if this no vote pushes it over the limit\n        if ((SafeMath.mul(request.noVoteContributionTotal, 100)).div(totalContributions) >= 15) {\n        \trequest.overNoLimit = true;\n        \trequest.complete = true;\n        }\n    }\n\n    /**\n      * @dev require that request isn't over the 15% no vote limit and that it hasn't been completed previously.\n      * @dev can't finalize request if it's not yet past the request days deadline.\n      * @param index of the particular request.\n    */\n    function finalizeRequest(uint256 index) public restricted {\n        Request storage request = requests[index]; // Use storage keyword because we want to change the request's state.\n        \n        require(!request.overNoLimit);\n        require(!request.complete);\n        require(request.createdTimestamp <= now - 1000 * 60 * 60 * 24 * requestDaysDeadline ); // Prevent finalizing request if haven't reached the request days deadline.\n        require(address(this).balance > request.value); // Require there to be enough funds in the campaign.\n\n        request.recipient.transfer(request.value); // Transfer the request total to the recipient address defined when creating the request.\n        request.complete = true;\n    }\n\n    /**\n      * @dev Return request at index.  Restricted, so only manager can access\n      * @param index of the particular request to return.\n    */\n    function getRequest(uint256 index) restricted public view returns(string, uint256, address, bool, bool, string, uint256, uint256) {\n        Request memory request = requests[index];  // Use memory so not changing state.\n        return (request.description, request.value, request.recipient, request.complete, request.overNoLimit, request.databaseKey, request.noVoteContributionTotal, request.createdTimestamp);\n    }\n\n    /**\n      * @dev Returns a summary of the campaign\n    */\n    function getSummary() public view returns(\n        uint256, uint256, uint256, uint256, uint256, address, string, uint256, string, uint256, string\n    ) { // Not changing in data, so 'view'\n        return (\n            minimumContribution,\n            address(this).balance,\n            requests.length,\n            contributorsCount,\n            totalContributions,\n            manager,\n            infoKey,\n            requestDaysDeadline,\n            title, \n            goal, \n            category\n        );\n    }\n\n    function getRequestCount() public view returns(uint256) {\n        return requests.length;\n    }\n\n    function getContributionAmount(address contributor) public view returns(uint256) {\n      return contributors[contributor];\n    }\n\n    function getRequestNoVotes(uint256 index, address contributor) public view returns(bool) {\n        Request request = requests[index];  // Use memory so not changing state.\n        return request.noVotes[contributor];\n    }\n\n}",
  "sourcePath": "/Users/danielliebeskind/Dropbox/Hacking/ethereum/collabonate-react/contracts/Campaign.sol",
  "compiler": {
    "name": "solc",
    "version": "0.4.24+commit.e67f0147.Emscripten.clang"
  },
  "schemaVersion": "2.0.1",
  "updatedAt": "2018-08-22T05:57:32.567Z"
}