{
  "contractName": "Campaign",
  "abi": [
    {
      "constant": true,
      "inputs": [
        {
          "name": "",
          "type": "address"
        }
      ],
      "name": "contributors",
      "outputs": [
        {
          "name": "",
          "type": "uint256"
        }
      ],
      "payable": false,
      "stateMutability": "view",
      "type": "function"
    },
    {
      "constant": true,
      "inputs": [],
      "name": "infoKey",
      "outputs": [
        {
          "name": "",
          "type": "string"
        }
      ],
      "payable": false,
      "stateMutability": "view",
      "type": "function"
    },
    {
      "constant": true,
      "inputs": [],
      "name": "totalContributions",
      "outputs": [
        {
          "name": "",
          "type": "uint256"
        }
      ],
      "payable": false,
      "stateMutability": "view",
      "type": "function"
    },
    {
      "constant": true,
      "inputs": [],
      "name": "manager",
      "outputs": [
        {
          "name": "",
          "type": "address"
        }
      ],
      "payable": false,
      "stateMutability": "view",
      "type": "function"
    },
    {
      "constant": true,
      "inputs": [],
      "name": "contributorsCount",
      "outputs": [
        {
          "name": "",
          "type": "uint256"
        }
      ],
      "payable": false,
      "stateMutability": "view",
      "type": "function"
    },
    {
      "constant": true,
      "inputs": [
        {
          "name": "",
          "type": "uint256"
        }
      ],
      "name": "requests",
      "outputs": [
        {
          "name": "description",
          "type": "string"
        },
        {
          "name": "value",
          "type": "uint256"
        },
        {
          "name": "recipient",
          "type": "address"
        },
        {
          "name": "complete",
          "type": "bool"
        },
        {
          "name": "overNoLimit",
          "type": "bool"
        },
        {
          "name": "databaseKey",
          "type": "string"
        },
        {
          "name": "noVoteContributionTotal",
          "type": "uint256"
        },
        {
          "name": "createdTimestamp",
          "type": "uint256"
        }
      ],
      "payable": false,
      "stateMutability": "view",
      "type": "function"
    },
    {
      "constant": true,
      "inputs": [
        {
          "name": "",
          "type": "uint256"
        }
      ],
      "name": "contributorAddresses",
      "outputs": [
        {
          "name": "",
          "type": "address"
        }
      ],
      "payable": false,
      "stateMutability": "view",
      "type": "function"
    },
    {
      "constant": true,
      "inputs": [],
      "name": "minimumContribution",
      "outputs": [
        {
          "name": "",
          "type": "uint256"
        }
      ],
      "payable": false,
      "stateMutability": "view",
      "type": "function"
    },
    {
      "constant": true,
      "inputs": [],
      "name": "requestDaysDeadline",
      "outputs": [
        {
          "name": "",
          "type": "uint256"
        }
      ],
      "payable": false,
      "stateMutability": "view",
      "type": "function"
    },
    {
      "inputs": [
        {
          "name": "minimum",
          "type": "uint256"
        },
        {
          "name": "creator",
          "type": "address"
        },
        {
          "name": "databaseKey",
          "type": "string"
        },
        {
          "name": "requestDays",
          "type": "uint256"
        }
      ],
      "payable": false,
      "stateMutability": "nonpayable",
      "type": "constructor"
    },
    {
      "constant": false,
      "inputs": [],
      "name": "toggleContractActive",
      "outputs": [],
      "payable": false,
      "stateMutability": "nonpayable",
      "type": "function"
    },
    {
      "constant": false,
      "inputs": [],
      "name": "contribute",
      "outputs": [],
      "payable": true,
      "stateMutability": "payable",
      "type": "function"
    },
    {
      "constant": false,
      "inputs": [
        {
          "name": "description",
          "type": "string"
        },
        {
          "name": "value",
          "type": "uint256"
        },
        {
          "name": "recipient",
          "type": "address"
        },
        {
          "name": "databaseKey",
          "type": "string"
        }
      ],
      "name": "createRequest",
      "outputs": [],
      "payable": false,
      "stateMutability": "nonpayable",
      "type": "function"
    },
    {
      "constant": false,
      "inputs": [
        {
          "name": "index",
          "type": "uint256"
        }
      ],
      "name": "voteNo",
      "outputs": [],
      "payable": false,
      "stateMutability": "nonpayable",
      "type": "function"
    },
    {
      "constant": false,
      "inputs": [
        {
          "name": "index",
          "type": "uint256"
        }
      ],
      "name": "finalizeRequest",
      "outputs": [],
      "payable": false,
      "stateMutability": "nonpayable",
      "type": "function"
    },
    {
      "constant": true,
      "inputs": [
        {
          "name": "index",
          "type": "uint256"
        }
      ],
      "name": "getRequest",
      "outputs": [
        {
          "name": "",
          "type": "string"
        },
        {
          "name": "",
          "type": "uint256"
        },
        {
          "name": "",
          "type": "address"
        },
        {
          "name": "",
          "type": "bool"
        },
        {
          "name": "",
          "type": "bool"
        },
        {
          "name": "",
          "type": "string"
        },
        {
          "name": "",
          "type": "uint256"
        },
        {
          "name": "",
          "type": "uint256"
        }
      ],
      "payable": false,
      "stateMutability": "view",
      "type": "function"
    },
    {
      "constant": true,
      "inputs": [],
      "name": "getSummary",
      "outputs": [
        {
          "name": "",
          "type": "uint256"
        },
        {
          "name": "",
          "type": "uint256"
        },
        {
          "name": "",
          "type": "uint256"
        },
        {
          "name": "",
          "type": "uint256"
        },
        {
          "name": "",
          "type": "address"
        },
        {
          "name": "",
          "type": "string"
        },
        {
          "name": "",
          "type": "uint256"
        }
      ],
      "payable": false,
      "stateMutability": "view",
      "type": "function"
    }
  ],
  "bytecode": "0x60806040526000600860006101000a81548160ff0219169083151502179055503480156200002c57600080fd5b50604051620018c6380380620018c683398101806040528101908080519060200190929190805190602001909291908051820192919060200180519060200190929190505050826000806101000a81548173ffffffffffffffffffffffffffffffffffffffff021916908373ffffffffffffffffffffffffffffffffffffffff160217905550836001819055508160029080519060200190620000d1929190620000eb565b50600060058190555080600781905550505050506200019a565b828054600181600116156101000203166002900490600052602060002090601f016020900481019282601f106200012e57805160ff19168380011785556200015f565b828001600101855582156200015f579182015b828111156200015e57825182559160200191906001019062000141565b5b5090506200016e919062000172565b5090565b6200019791905b808211156200019357600081600090555060010162000179565b5090565b90565b61171c80620001aa6000396000f3006080604052600436106100e6576000357c0100000000000000000000000000000000000000000000000000000000900463ffffffff16806303441006146100eb5780631385d24c146101185780631a6f7be51461012f5780631f6d49421461015c578063283a8b5b146101b357806337c08923146102435780634051ddac1461026e578063481c6a7514610354578063654f6509146103ab5780637569b3d71461048457806381d12c58146104af5780638dd085571461061f578063937e09b11461068c57806393861b67146106b7578063c58343ef146106e2578063d7bb99ba14610852575b600080fd5b3480156100f757600080fd5b506101166004803603810190808035906020019092919050505061085c565b005b34801561012457600080fd5b5061012d6109ea565b005b34801561013b57600080fd5b5061015a60048036038101908080359060200190929190505050610a71565b005b34801561016857600080fd5b5061019d600480360381019080803573ffffffffffffffffffffffffffffffffffffffff169060200190929190505050610c60565b6040518082815260200191505060405180910390f35b3480156101bf57600080fd5b506101c8610c78565b6040518080602001828103825283818151815260200191508051906020019080838360005b838110156102085780820151818401526020810190506101ed565b50505050905090810190601f1680156102355780820380516001836020036101000a031916815260200191505b509250505060405180910390f35b34801561024f57600080fd5b50610258610d16565b6040518082815260200191505060405180910390f35b34801561027a57600080fd5b50610283610d1c565b604051808881526020018781526020018681526020018581526020018473ffffffffffffffffffffffffffffffffffffffff1673ffffffffffffffffffffffffffffffffffffffff16815260200180602001838152602001828103825284818151815260200191508051906020019080838360005b838110156103135780820151818401526020810190506102f8565b50505050905090810190601f1680156103405780820380516001836020036101000a031916815260200191505b509850505050505050505060405180910390f35b34801561036057600080fd5b50610369610e26565b604051808273ffffffffffffffffffffffffffffffffffffffff1673ffffffffffffffffffffffffffffffffffffffff16815260200191505060405180910390f35b3480156103b757600080fd5b50610482600480360381019080803590602001908201803590602001908080601f016020809104026020016040519081016040528093929190818152602001838380828437820191505050505050919291929080359060200190929190803573ffffffffffffffffffffffffffffffffffffffff169060200190929190803590602001908201803590602001908080601f0160208091040260200160405190810160405280939291908181526020018383808284378201915050505050509192919290505050610e4b565b005b34801561049057600080fd5b5061049961101f565b6040518082815260200191505060405180910390f35b3480156104bb57600080fd5b506104da60048036038101908080359060200190929190505050611025565b60405180806020018981526020018873ffffffffffffffffffffffffffffffffffffffff1673ffffffffffffffffffffffffffffffffffffffff16815260200187151515158152602001861515151581526020018060200185815260200184815260200183810383528b818151815260200191508051906020019080838360005b8381101561057657808201518184015260208101905061055b565b50505050905090810190601f1680156105a35780820380516001836020036101000a031916815260200191505b50838103825286818151815260200191508051906020019080838360005b838110156105dc5780820151818401526020810190506105c1565b50505050905090810190601f1680156106095780820380516001836020036101000a031916815260200191505b509a505050505050505050505060405180910390f35b34801561062b57600080fd5b5061064a600480360381019080803590602001909291905050506111e6565b604051808273ffffffffffffffffffffffffffffffffffffffff1673ffffffffffffffffffffffffffffffffffffffff16815260200191505060405180910390f35b34801561069857600080fd5b506106a1611224565b6040518082815260200191505060405180910390f35b3480156106c357600080fd5b506106cc61122a565b6040518082815260200191505060405180910390f35b3480156106ee57600080fd5b5061070d60048036038101908080359060200190929190505050611230565b60405180806020018981526020018873ffffffffffffffffffffffffffffffffffffffff1673ffffffffffffffffffffffffffffffffffffffff16815260200187151515158152602001861515151581526020018060200185815260200184815260200183810383528b818151815260200191508051906020019080838360005b838110156107a957808201518184015260208101905061078e565b50505050905090810190601f1680156107d65780820380516001836020036101000a031916815260200191505b50838103825286818151815260200191508051906020019080838360005b8381101561080f5780820151818401526020810190506107f4565b50505050905090810190601f16801561083c5780820380516001836020036101000a031916815260200191505b509a505050505050505050505060405180910390f35b61085a611504565b005b60008060009054906101000a900473ffffffffffffffffffffffffffffffffffffffff1673ffffffffffffffffffffffffffffffffffffffff163373ffffffffffffffffffffffffffffffffffffffff161415156108b957600080fd5b6009828154811015156108c857fe5b906000526020600020906007020190508060020160159054906101000a900460ff161515156108f657600080fd5b8060020160149054906101000a900460ff1615151561091457600080fd5b6007546305265c0002420381600601541115151561093157600080fd5b80600101543073ffffffffffffffffffffffffffffffffffffffff163111151561095a57600080fd5b8060020160009054906101000a900473ffffffffffffffffffffffffffffffffffffffff1673ffffffffffffffffffffffffffffffffffffffff166108fc82600101549081150290604051600060405180830381858888f193505050501580156109c8573d6000803e3d6000fd5b5060018160020160146101000a81548160ff0219169083151502179055505050565b6000809054906101000a900473ffffffffffffffffffffffffffffffffffffffff1673ffffffffffffffffffffffffffffffffffffffff163373ffffffffffffffffffffffffffffffffffffffff16141515610a4557600080fd5b600860009054906101000a900460ff1615600860006101000a81548160ff021916908315150217905550565b6000600982815481101515610a8257fe5b906000526020600020906007020190506000600360003373ffffffffffffffffffffffffffffffffffffffff1673ffffffffffffffffffffffffffffffffffffffff16815260200190815260200160002054111515610ae057600080fd5b6007546305265c00024203816006015410151515610afd57600080fd5b8060050160003373ffffffffffffffffffffffffffffffffffffffff1673ffffffffffffffffffffffffffffffffffffffff16815260200190815260200160002060009054906101000a900460ff16151515610b5857600080fd5b60018160050160003373ffffffffffffffffffffffffffffffffffffffff1673ffffffffffffffffffffffffffffffffffffffff16815260200190815260200160002060006101000a81548160ff021916908315150217905550600360003373ffffffffffffffffffffffffffffffffffffffff1673ffffffffffffffffffffffffffffffffffffffff168152602001908152602001600020548160040160008282540192505081905550600f6005548260040154811515610c1657fe5b04606402101515610c5c5760018160020160156101000a81548160ff02191690831515021790555060018160020160146101000a81548160ff0219169083151502179055505b5050565b60036020528060005260406000206000915090505481565b60028054600181600116156101000203166002900480601f016020809104026020016040519081016040528092919081815260200182805460018160011615610100020316600290048015610d0e5780601f10610ce357610100808354040283529160200191610d0e565b820191906000526020600020905b815481529060010190602001808311610cf157829003601f168201915b505050505081565b60055481565b6000806000806000606060006001543073ffffffffffffffffffffffffffffffffffffffff16316009805490506006546000809054906101000a900473ffffffffffffffffffffffffffffffffffffffff166002600754818054600181600116156101000203166002900480601f016020809104026020016040519081016040528092919081815260200182805460018160011615610100020316600290048015610e085780601f10610ddd57610100808354040283529160200191610e08565b820191906000526020600020905b815481529060010190602001808311610deb57829003601f168201915b50505050509150965096509650965096509650965090919293949596565b6000809054906101000a900473ffffffffffffffffffffffffffffffffffffffff1681565b610e536115eb565b6000809054906101000a900473ffffffffffffffffffffffffffffffffffffffff1673ffffffffffffffffffffffffffffffffffffffff163373ffffffffffffffffffffffffffffffffffffffff16141515610eae57600080fd5b610100604051908101604052808681526020018581526020018473ffffffffffffffffffffffffffffffffffffffff16815260200160001515815260200160001515815260200183815260200160008152602001428152509050600981908060018154018082558091505090600182039060005260206000209060070201600090919290919091506000820151816000019080519060200190610f5292919061164b565b506020820151816001015560408201518160020160006101000a81548173ffffffffffffffffffffffffffffffffffffffff021916908373ffffffffffffffffffffffffffffffffffffffff16021790555060608201518160020160146101000a81548160ff02191690831515021790555060808201518160020160156101000a81548160ff02191690831515021790555060a082015181600301908051906020019061100092919061164b565b5060c0820151816004015560e082015181600601555050505050505050565b60065481565b60098181548110151561103457fe5b9060005260206000209060070201600091509050806000018054600181600116156101000203166002900480601f0160208091040260200160405190810160405280929190818152602001828054600181600116156101000203166002900480156110e05780601f106110b5576101008083540402835291602001916110e0565b820191906000526020600020905b8154815290600101906020018083116110c357829003601f168201915b5050505050908060010154908060020160009054906101000a900473ffffffffffffffffffffffffffffffffffffffff16908060020160149054906101000a900460ff16908060020160159054906101000a900460ff1690806003018054600181600116156101000203166002900480601f0160208091040260200160405190810160405280929190818152602001828054600181600116156101000203166002900480156111d05780601f106111a5576101008083540402835291602001916111d0565b820191906000526020600020905b8154815290600101906020018083116111b357829003601f168201915b5050505050908060040154908060060154905088565b6004818154811015156111f557fe5b906000526020600020016000915054906101000a900473ffffffffffffffffffffffffffffffffffffffff1681565b60015481565b60075481565b606060008060008060606000806112456115eb565b6000809054906101000a900473ffffffffffffffffffffffffffffffffffffffff1673ffffffffffffffffffffffffffffffffffffffff163373ffffffffffffffffffffffffffffffffffffffff161415156112a057600080fd5b60098a8154811015156112af57fe5b90600052602060002090600702016101006040519081016040529081600082018054600181600116156101000203166002900480601f0160208091040260200160405190810160405280929190818152602001828054600181600116156101000203166002900480156113635780601f1061133857610100808354040283529160200191611363565b820191906000526020600020905b81548152906001019060200180831161134657829003601f168201915b50505050508152602001600182015481526020016002820160009054906101000a900473ffffffffffffffffffffffffffffffffffffffff1673ffffffffffffffffffffffffffffffffffffffff1673ffffffffffffffffffffffffffffffffffffffff1681526020016002820160149054906101000a900460ff161515151581526020016002820160159054906101000a900460ff16151515158152602001600382018054600181600116156101000203166002900480601f01602080910402602001604051908101604052809291908181526020018280546001816001161561010002031660029004801561149b5780601f106114705761010080835404028352916020019161149b565b820191906000526020600020905b81548152906001019060200180831161147e57829003601f168201915b50505050508152602001600482015481526020016006820154815250509050806000015181602001518260400151836060015184608001518560a001518660c001518760e001518797508292509850985098509850985098509850985050919395975091939597565b6000600860009054906101000a900460ff1615156115e857349050600154811015151561153057600080fd5b80600360003373ffffffffffffffffffffffffffffffffffffffff1673ffffffffffffffffffffffffffffffffffffffff168152602001908152602001600020600082825401925050819055508060056000828254019250508190555080600360003373ffffffffffffffffffffffffffffffffffffffff1673ffffffffffffffffffffffffffffffffffffffff1681526020019081526020016000205414156115e7576006600081548092919060010191905055505b5b50565b610100604051908101604052806060815260200160008152602001600073ffffffffffffffffffffffffffffffffffffffff1681526020016000151581526020016000151581526020016060815260200160008152602001600081525090565b828054600181600116156101000203166002900490600052602060002090601f016020900481019282601f1061168c57805160ff19168380011785556116ba565b828001600101855582156116ba579182015b828111156116b957825182559160200191906001019061169e565b5b5090506116c791906116cb565b5090565b6116ed91905b808211156116e95760008160009055506001016116d1565b5090565b905600a165627a7a72305820174d42b3b58b2235d76deab5fd7abaff7ef65db0a7a98e41cccdd77f0cf6d3050029",
  "source": "pragma solidity ^0.4.24;\n\n/// @title Fundraising campaign where contributors vote on use of funds.\ncontract Campaign {\n    address public manager; // Owner/creator of the campaign.\n    uint public minimumContribution; // Minimum amount of wei contributor must contribute to the campaign.\n    string public infoKey; // Database/IPFS key (not 100% sure how going to use this yet).\n    mapping(address => uint) public contributors; // Address of each approver and how much wei/eth each has contributed.\n    address[] public contributorAddresses;\n    uint public totalContributions; // Track total contributions, which will differ from this.balance if funds are distributed.\n    uint public contributorsCount; // How many contributors are there.  Less important than totalContributions, but still interesting.\n    uint public requestDaysDeadline; // Set by the manager when first creating the campaign.  It's known to contributors when they contribute.\n    bool private stopped = false;\n\n    // Requests are considered approved if complete === true && overNoLimit === false.  Denied if overNoLimit === true.\n    struct Request {\n        string description; // Description of the request.  This cannot be changed later, which prevents bait-and-switch.\n        uint value; // Quantity of funds requested for distribution.\n        address recipient; // Address of intended recipient of the funds.\n        bool complete; // Whether this request is complete.\n        bool overNoLimit; // Are there no votes from addresses accounting for >= 15% of the total contributions?\n        string databaseKey; // Location of other request-specific assets like images, videos, etc.\n        uint noVoteContributionTotal; // Sum of no-votes.  Request is denied if noVoteContributionTotal is ever >= 15% of totalContributions.\n        mapping(address => bool) noVotes; // Which contributors have voted against a request.  Can't vote against a request more than once per address.\n    \t  uint createdTimestamp; // Used to calculate the cutoff point where contributors can no longer vote no.\n    }\n    \n    Request[] public requests; // Array of requests.\n\n    // Modifier that restricts the function to only be callable from the manager's address\n    modifier restricted() {\n        require(msg.sender == manager); // Rejects the function if message sender isn't the manager\n        _; // Replaced by the actual function body when the modifier is used.\n    }\n\n    // Circuit breaker functionality\n    modifier stopInEmergency { if (!stopped) _; }\n    modifier onlyInEmergency { if (stopped) _; }\n\n    /**\n      * @dev Initialize the campaign and set total contributions to 0.\n      * @param minimum min amount contributor can contribute to this campaign.\n      * @param creator address of the person creating the campaign.  Necessary because when using a factory, can't pull msg.sender directly.\n\t    * @param databaseKey key that connects this campaign to external resource.  Probably IPFS for content storage.\n\t    * @param requestDays is set by the manager when first creating the campaign and is known to contributors when they contribute.\n    */\n    constructor(uint minimum, address creator, string databaseKey, uint requestDays) public {\n        manager = creator;\n        minimumContribution = minimum;\n        infoKey = databaseKey;\n        totalContributions = 0;\n        requestDaysDeadline = requestDays;\n    }\n\n    // Circuit breaker functionality\n    function toggleContractActive() restricted public {\n        // You can add an additional modifier that restricts stopping a contract to be based on another action, such as a vote of users\n        stopped = !stopped;\n    }\n\n    /**\n      * @dev Allows contribution to the campaign.  Campaign manager can stop this functionality in an emergency.\n    */    \n    function contribute() stopInEmergency public payable {\n        uint amount = msg.value;\n        require(amount >= minimumContribution);\n       \n        contributors[msg.sender] += amount; // Tracks how much each 'approver' has contributed.\n        totalContributions += amount;\n       \n       \t// Increment contributor count only if this is the sender's first contribution. \n        if (contributors[msg.sender] == amount) {\n        \tcontributorsCount++;\t\n        }  \n    }\n\n    /**\n      *\t@dev The request requires no more than 15% of contributors (by % of total contribution) to vote against it for approval.\n      * @param description of the request.\n      * @param value amount of wei/eth the request is asking to be distributed.\n      * @param recipient address the funds will automatically be sent to if the request is approved.\n      * @param databaseKey for IPFS or other database containing request assets (like images/videos/etc).\n    */\n    function createRequest(string description, uint value, address recipient, string databaseKey) public restricted {\n        // Initialized with memory keyword because don't need to store this beyond this function.\n        // Push newRequest into requests array, where it will be stored long-term.\n        Request memory newRequest = Request({ \n           description: description,\n           value: value,\n           recipient: recipient,\n           complete: false,\n           overNoLimit: false, // Initialize at false as request isn't over the 15% limit when it's initialized.\n           databaseKey: databaseKey,\n           noVoteContributionTotal: 0, // No contributors have voted against the request yet.\n           /** Using .timestamp here even though it can be manipulated slightly by miners because we want to prevent voting after ~5 days.  \n               Accuracy not that important and it's easier (and more accurage) to estimate timestamp than block number.\n               Passes the 30 second rule. https://consensys.github.io/smart-contract-best-practices/recommendations/#timestamp-dependence\n            */\n           createdTimestamp: block.timestamp \n        });\n        requests.push(newRequest);\n    }\n\n    /**\n      *\t@dev Requests requires no more than 15% of contributors (by % of total contribution) to vote against it for approval.\n      *\t@dev Requests will be denied if this no vote pushes it over the 15% limit.\n      * @param index of the particular request where contributor is voting 'no'.\n    */\n    function voteNo(uint index) public {\n        Request storage request = requests[index]; // Use storage keyword because we want to change the request's state.\n        \n        require(contributors[msg.sender] > 0); // Check to see if the sender is a contributor to the campaign.\n        require(request.createdTimestamp >= now - 1000 * 60 * 60 * 24 * requestDaysDeadline ); // Prevents voting if 'now' is more than 5 days from the request creation timestamp.\n        require(!request.noVotes[msg.sender]); //Can't vote twice or change vote.\n        \n        request.noVotes[msg.sender] = true; // Prevents contributor from voting more than once.\n        \n        // Increase the no vote contribution total by the amount of wei/eth that the sender address has contributed.\n        request.noVoteContributionTotal += contributors[msg.sender];\n\n        // Reject the request if this no vote pushes it over the limit\n        if (100*(request.noVoteContributionTotal / totalContributions) >= 15) {\n        \trequest.overNoLimit = true;\n        \trequest.complete = true;\n        }\n    }\n\n    /**\n      * @dev require that request isn't over the 15% no vote limit and that it hasn't been completed previously.\n      * @dev can't finalize request if it's not yet past the request days deadline.\n      * @param index of the particular request.\n    */\n    function finalizeRequest(uint index) public restricted {\n        Request storage request = requests[index]; // Use storage keyword because we want to change the request's state.\n        \n        require(!request.overNoLimit);\n        require(!request.complete);\n        require(request.createdTimestamp <= now - 1000 * 60 * 60 * 24 * requestDaysDeadline ); // Prevent finalizing request if haven't reached the request days deadline.\n        require(address(this).balance > request.value); // Require there to be enough funds in the campaign.\n\n        request.recipient.transfer(request.value); // Transfer the request total to the recipient address defined when creating the request.\n        request.complete = true;\n    }\n\n    /**\n      * @dev Return request at index.  Restricted, so only manager can access\n      * @param index of the particular request to return.\n    */\n    function getRequest(uint index) restricted public view returns(string, uint, address, bool, bool, string, uint, uint) {\n        Request memory request = requests[index];  // Use memory so not changing state.\n        return (request.description, request.value, request.recipient, request.complete, request.overNoLimit, request.databaseKey, request.noVoteContributionTotal, request.createdTimestamp);\n    }\n\n    /**\n      * @dev Returns a summary of the campaign\n    */\n    function getSummary() public view returns(\n        uint, uint, uint, uint, address, string, uint\n    ) { // Not changing in data, so 'view'\n        return (\n            minimumContribution,\n            address(this).balance,\n            requests.length,\n            contributorsCount,\n            manager,\n            infoKey,\n            requestDaysDeadline\n        );\n    }\n\n}",
  "sourcePath": "/Users/danielliebeskind/Dropbox/Hacking/ethereum/collabonate-react/contracts/Campaign.sol",
  "compiler": {
    "name": "solc",
    "version": "0.4.24+commit.e67f0147.Emscripten.clang"
  },
  "schemaVersion": "2.0.1",
  "updatedAt": "2018-08-20T05:34:52.594Z"
}